{
  "contractName": "GameItem",
  "abi": [
    {
      "inputs": [],
      "stateMutability": "nonpayable",
      "type": "constructor"
    },
    {
      "anonymous": false,
      "inputs": [
        {
          "indexed": true,
          "internalType": "address",
          "name": "owner",
          "type": "address"
        },
        {
          "indexed": true,
          "internalType": "address",
          "name": "approved",
          "type": "address"
        },
        {
          "indexed": true,
          "internalType": "uint256",
          "name": "tokenId",
          "type": "uint256"
        }
      ],
      "name": "Approval",
      "type": "event"
    },
    {
      "anonymous": false,
      "inputs": [
        {
          "indexed": true,
          "internalType": "address",
          "name": "owner",
          "type": "address"
        },
        {
          "indexed": true,
          "internalType": "address",
          "name": "operator",
          "type": "address"
        },
        {
          "indexed": false,
          "internalType": "bool",
          "name": "approved",
          "type": "bool"
        }
      ],
      "name": "ApprovalForAll",
      "type": "event"
    },
    {
      "anonymous": false,
      "inputs": [
        {
          "indexed": true,
          "internalType": "address",
          "name": "from",
          "type": "address"
        },
        {
          "indexed": true,
          "internalType": "address",
          "name": "to",
          "type": "address"
        },
        {
          "indexed": true,
          "internalType": "uint256",
          "name": "tokenId",
          "type": "uint256"
        }
      ],
      "name": "Transfer",
      "type": "event"
    },
    {
      "inputs": [
        {
          "internalType": "address",
          "name": "to",
          "type": "address"
        },
        {
          "internalType": "uint256",
          "name": "tokenId",
          "type": "uint256"
        }
      ],
      "name": "approve",
      "outputs": [],
      "stateMutability": "nonpayable",
      "type": "function"
    },
    {
      "inputs": [
        {
          "internalType": "address",
          "name": "owner",
          "type": "address"
        }
      ],
      "name": "balanceOf",
      "outputs": [
        {
          "internalType": "uint256",
          "name": "",
          "type": "uint256"
        }
      ],
      "stateMutability": "view",
      "type": "function",
      "constant": true
    },
    {
      "inputs": [
        {
          "internalType": "uint256",
          "name": "tokenId",
          "type": "uint256"
        }
      ],
      "name": "getApproved",
      "outputs": [
        {
          "internalType": "address",
          "name": "",
          "type": "address"
        }
      ],
      "stateMutability": "view",
      "type": "function",
      "constant": true
    },
    {
      "inputs": [
        {
          "internalType": "address",
          "name": "owner",
          "type": "address"
        },
        {
          "internalType": "address",
          "name": "operator",
          "type": "address"
        }
      ],
      "name": "isApprovedForAll",
      "outputs": [
        {
          "internalType": "bool",
          "name": "",
          "type": "bool"
        }
      ],
      "stateMutability": "view",
      "type": "function",
      "constant": true
    },
    {
      "inputs": [],
      "name": "name",
      "outputs": [
        {
          "internalType": "string",
          "name": "",
          "type": "string"
        }
      ],
      "stateMutability": "view",
      "type": "function",
      "constant": true
    },
    {
      "inputs": [
        {
          "internalType": "uint256",
          "name": "tokenId",
          "type": "uint256"
        }
      ],
      "name": "ownerOf",
      "outputs": [
        {
          "internalType": "address",
          "name": "",
          "type": "address"
        }
      ],
      "stateMutability": "view",
      "type": "function",
      "constant": true
    },
    {
      "inputs": [
        {
          "internalType": "address",
          "name": "from",
          "type": "address"
        },
        {
          "internalType": "address",
          "name": "to",
          "type": "address"
        },
        {
          "internalType": "uint256",
          "name": "tokenId",
          "type": "uint256"
        }
      ],
      "name": "safeTransferFrom",
      "outputs": [],
      "stateMutability": "nonpayable",
      "type": "function"
    },
    {
      "inputs": [
        {
          "internalType": "address",
          "name": "from",
          "type": "address"
        },
        {
          "internalType": "address",
          "name": "to",
          "type": "address"
        },
        {
          "internalType": "uint256",
          "name": "tokenId",
          "type": "uint256"
        },
        {
          "internalType": "bytes",
          "name": "_data",
          "type": "bytes"
        }
      ],
      "name": "safeTransferFrom",
      "outputs": [],
      "stateMutability": "nonpayable",
      "type": "function"
    },
    {
      "inputs": [
        {
          "internalType": "address",
          "name": "operator",
          "type": "address"
        },
        {
          "internalType": "bool",
          "name": "approved",
          "type": "bool"
        }
      ],
      "name": "setApprovalForAll",
      "outputs": [],
      "stateMutability": "nonpayable",
      "type": "function"
    },
    {
      "inputs": [
        {
          "internalType": "bytes4",
          "name": "interfaceId",
          "type": "bytes4"
        }
      ],
      "name": "supportsInterface",
      "outputs": [
        {
          "internalType": "bool",
          "name": "",
          "type": "bool"
        }
      ],
      "stateMutability": "view",
      "type": "function",
      "constant": true
    },
    {
      "inputs": [],
      "name": "symbol",
      "outputs": [
        {
          "internalType": "string",
          "name": "",
          "type": "string"
        }
      ],
      "stateMutability": "view",
      "type": "function",
      "constant": true
    },
    {
      "inputs": [
        {
          "internalType": "uint256",
          "name": "tokenId",
          "type": "uint256"
        }
      ],
      "name": "tokenURI",
      "outputs": [
        {
          "internalType": "string",
          "name": "",
          "type": "string"
        }
      ],
      "stateMutability": "view",
      "type": "function",
      "constant": true
    },
    {
      "inputs": [
        {
          "internalType": "address",
          "name": "from",
          "type": "address"
        },
        {
          "internalType": "address",
          "name": "to",
          "type": "address"
        },
        {
          "internalType": "uint256",
          "name": "tokenId",
          "type": "uint256"
        }
      ],
      "name": "transferFrom",
      "outputs": [],
      "stateMutability": "nonpayable",
      "type": "function"
    },
    {
      "inputs": [
        {
          "internalType": "address",
          "name": "player",
          "type": "address"
        },
        {
          "internalType": "string",
          "name": "tokenURI",
          "type": "string"
        }
      ],
      "name": "awardItem",
      "outputs": [
        {
          "internalType": "uint256",
          "name": "",
          "type": "uint256"
        }
      ],
      "stateMutability": "nonpayable",
      "type": "function"
    },
    {
      "inputs": [],
      "name": "currentSupply",
      "outputs": [
        {
          "internalType": "uint256",
          "name": "",
          "type": "uint256"
        }
      ],
      "stateMutability": "view",
      "type": "function",
      "constant": true
    }
  ],
  "bytecode": "0x60806040523480156200001157600080fd5b506040518060400160405280600881526020017f47616d654974656d0000000000000000000000000000000000000000000000008152506040518060400160405280600381526020017f49544d0000000000000000000000000000000000000000000000000000000000815250816000908051906020019062000096929190620000b8565b508060019080519060200190620000af929190620000b8565b505050620001cd565b828054620000c69062000168565b90600052602060002090601f016020900481019282620000ea576000855562000136565b82601f106200010557805160ff191683800117855562000136565b8280016001018555821562000136579182015b828111156200013557825182559160200191906001019062000118565b5b50905062000145919062000149565b5090565b5b80821115620001645760008160009055506001016200014a565b5090565b600060028204905060018216806200018157607f821691505b602082108114156200019857620001976200019e565b5b50919050565b7f4e487b7100000000000000000000000000000000000000000000000000000000600052602260045260246000fd5b612bd480620001dd6000396000f3fe608060405234801561001057600080fd5b50600436106100f55760003560e01c806370a0823111610097578063b88d4fde11610066578063b88d4fde14610284578063c87b56dd146102a0578063cf378343146102d0578063e985e9c514610300576100f5565b806370a08231146101fc578063771282f61461022c57806395d89b411461024a578063a22cb46514610268576100f5565b8063095ea7b3116100d3578063095ea7b31461017857806323b872dd1461019457806342842e0e146101b05780636352211e146101cc576100f5565b806301ffc9a7146100fa57806306fdde031461012a578063081812fc14610148575b600080fd5b610114600480360381019061010f9190611c81565b610330565b6040516101219190612087565b60405180910390f35b610132610412565b60405161013f91906120a2565b60405180910390f35b610162600480360381019061015d9190611cd3565b6104a4565b60405161016f9190612020565b60405180910390f35b610192600480360381019061018d9190611c45565b610529565b005b6101ae60048036038101906101a99190611aeb565b610641565b005b6101ca60048036038101906101c59190611aeb565b6106a1565b005b6101e660048036038101906101e19190611cd3565b6106c1565b6040516101f39190612020565b60405180910390f35b61021660048036038101906102119190611a86565b610773565b60405161022391906122c4565b60405180910390f35b61023461082b565b60405161024191906122c4565b60405180910390f35b61025261083c565b60405161025f91906120a2565b60405180910390f35b610282600480360381019061027d9190611bb5565b6108ce565b005b61029e60048036038101906102999190611b3a565b6108e4565b005b6102ba60048036038101906102b59190611cd3565b610946565b6040516102c791906120a2565b60405180910390f35b6102ea60048036038101906102e59190611bf1565b610a98565b6040516102f791906122c4565b60405180910390f35b61031a60048036038101906103159190611aaf565b610ad0565b6040516103279190612087565b60405180910390f35b60007f80ac58cd000000000000000000000000000000000000000000000000000000007bffffffffffffffffffffffffffffffffffffffffffffffffffffffff1916827bffffffffffffffffffffffffffffffffffffffffffffffffffffffff191614806103fb57507f5b5e139f000000000000000000000000000000000000000000000000000000007bffffffffffffffffffffffffffffffffffffffffffffffffffffffff1916827bffffffffffffffffffffffffffffffffffffffffffffffffffffffff1916145b8061040b575061040a82610b64565b5b9050919050565b6060600080546104219061251a565b80601f016020809104026020016040519081016040528092919081815260200182805461044d9061251a565b801561049a5780601f1061046f5761010080835404028352916020019161049a565b820191906000526020600020905b81548152906001019060200180831161047d57829003601f168201915b5050505050905090565b60006104af82610bce565b6104ee576040517f08c379a00000000000000000000000000000000000000000000000000000000081526004016104e590612244565b60405180910390fd5b6004600083815260200190815260200160002060009054906101000a900473ffffffffffffffffffffffffffffffffffffffff169050919050565b6000610534826106c1565b90508073ffffffffffffffffffffffffffffffffffffffff168373ffffffffffffffffffffffffffffffffffffffff1614156105a5576040517f08c379a000000000000000000000000000000000000000000000000000000000815260040161059c90612284565b60405180910390fd5b8073ffffffffffffffffffffffffffffffffffffffff166105c4610c3a565b73ffffffffffffffffffffffffffffffffffffffff1614806105f357506105f2816105ed610c3a565b610ad0565b5b610632576040517f08c379a000000000000000000000000000000000000000000000000000000000815260040161062990612184565b60405180910390fd5b61063c8383610c42565b505050565b61065261064c610c3a565b82610cfb565b610691576040517f08c379a0000000000000000000000000000000000000000000000000000000008152600401610688906122a4565b60405180910390fd5b61069c838383610dd9565b505050565b6106bc838383604051806020016040528060008152506108e4565b505050565b6000806002600084815260200190815260200160002060009054906101000a900473ffffffffffffffffffffffffffffffffffffffff169050600073ffffffffffffffffffffffffffffffffffffffff168173ffffffffffffffffffffffffffffffffffffffff16141561076a576040517f08c379a0000000000000000000000000000000000000000000000000000000008152600401610761906121c4565b60405180910390fd5b80915050919050565b60008073ffffffffffffffffffffffffffffffffffffffff168273ffffffffffffffffffffffffffffffffffffffff1614156107e4576040517f08c379a00000000000000000000000000000000000000000000000000000000081526004016107db906121a4565b60405180910390fd5b600360008373ffffffffffffffffffffffffffffffffffffffff1673ffffffffffffffffffffffffffffffffffffffff168152602001908152602001600020549050919050565b60006108376007611040565b905090565b60606001805461084b9061251a565b80601f01602080910402602001604051908101604052809291908181526020018280546108779061251a565b80156108c45780601f10610899576101008083540402835291602001916108c4565b820191906000526020600020905b8154815290600101906020018083116108a757829003601f168201915b5050505050905090565b6108e06108d9610c3a565b838361104e565b5050565b6108f56108ef610c3a565b83610cfb565b610934576040517f08c379a000000000000000000000000000000000000000000000000000000000815260040161092b906122a4565b60405180910390fd5b610940848484846111bb565b50505050565b606061095182610bce565b610990576040517f08c379a000000000000000000000000000000000000000000000000000000000815260040161098790612224565b60405180910390fd5b60006006600084815260200190815260200160002080546109b09061251a565b80601f01602080910402602001604051908101604052809291908181526020018280546109dc9061251a565b8015610a295780601f106109fe57610100808354040283529160200191610a29565b820191906000526020600020905b815481529060010190602001808311610a0c57829003601f168201915b505050505090506000610a3a611217565b9050600081511415610a50578192505050610a93565b600082511115610a85578082604051602001610a6d929190611ffc565b60405160208183030381529060405292505050610a93565b610a8e8461122e565b925050505b919050565b6000610aa460076112d5565b6000610ab06007611040565b9050610abc84826112eb565b610ac681846114c5565b8091505092915050565b6000600560008473ffffffffffffffffffffffffffffffffffffffff1673ffffffffffffffffffffffffffffffffffffffff16815260200190815260200160002060008373ffffffffffffffffffffffffffffffffffffffff1673ffffffffffffffffffffffffffffffffffffffff16815260200190815260200160002060009054906101000a900460ff16905092915050565b60007f01ffc9a7000000000000000000000000000000000000000000000000000000007bffffffffffffffffffffffffffffffffffffffffffffffffffffffff1916827bffffffffffffffffffffffffffffffffffffffffffffffffffffffff1916149050919050565b60008073ffffffffffffffffffffffffffffffffffffffff166002600084815260200190815260200160002060009054906101000a900473ffffffffffffffffffffffffffffffffffffffff1673ffffffffffffffffffffffffffffffffffffffff1614159050919050565b600033905090565b816004600083815260200190815260200160002060006101000a81548173ffffffffffffffffffffffffffffffffffffffff021916908373ffffffffffffffffffffffffffffffffffffffff160217905550808273ffffffffffffffffffffffffffffffffffffffff16610cb5836106c1565b73ffffffffffffffffffffffffffffffffffffffff167f8c5be1e5ebec7d5bd14f71427d1e84f3dd0314c0f7b2291e5b200ac8c7c3b92560405160405180910390a45050565b6000610d0682610bce565b610d45576040517f08c379a0000000000000000000000000000000000000000000000000000000008152600401610d3c90612164565b60405180910390fd5b6000610d50836106c1565b90508073ffffffffffffffffffffffffffffffffffffffff168473ffffffffffffffffffffffffffffffffffffffff161480610dbf57508373ffffffffffffffffffffffffffffffffffffffff16610da7846104a4565b73ffffffffffffffffffffffffffffffffffffffff16145b80610dd05750610dcf8185610ad0565b5b91505092915050565b8273ffffffffffffffffffffffffffffffffffffffff16610df9826106c1565b73ffffffffffffffffffffffffffffffffffffffff1614610e4f576040517f08c379a0000000000000000000000000000000000000000000000000000000008152600401610e46906120e4565b60405180910390fd5b600073ffffffffffffffffffffffffffffffffffffffff168273ffffffffffffffffffffffffffffffffffffffff161415610ebf576040517f08c379a0000000000000000000000000000000000000000000000000000000008152600401610eb690612124565b60405180910390fd5b610eca838383611539565b610ed5600082610c42565b6001600360008573ffffffffffffffffffffffffffffffffffffffff1673ffffffffffffffffffffffffffffffffffffffff1681526020019081526020016000206000828254610f259190612430565b925050819055506001600360008473ffffffffffffffffffffffffffffffffffffffff1673ffffffffffffffffffffffffffffffffffffffff1681526020019081526020016000206000828254610f7c91906123a9565b92505081905550816002600083815260200190815260200160002060006101000a81548173ffffffffffffffffffffffffffffffffffffffff021916908373ffffffffffffffffffffffffffffffffffffffff160217905550808273ffffffffffffffffffffffffffffffffffffffff168473ffffffffffffffffffffffffffffffffffffffff167fddf252ad1be2c89b69c2b068fc378daa952ba7f163c4a11628f55a4df523b3ef60405160405180910390a461103b83838361153e565b505050565b600081600001549050919050565b8173ffffffffffffffffffffffffffffffffffffffff168373ffffffffffffffffffffffffffffffffffffffff1614156110bd576040517f08c379a00000000000000000000000000000000000000000000000000000000081526004016110b490612144565b60405180910390fd5b80600560008573ffffffffffffffffffffffffffffffffffffffff1673ffffffffffffffffffffffffffffffffffffffff16815260200190815260200160002060008473ffffffffffffffffffffffffffffffffffffffff1673ffffffffffffffffffffffffffffffffffffffff16815260200190815260200160002060006101000a81548160ff0219169083151502179055508173ffffffffffffffffffffffffffffffffffffffff168373ffffffffffffffffffffffffffffffffffffffff167f17307eab39ab6107e8899845ad3d59bd9653f200f220920489ca2b5937696c31836040516111ae9190612087565b60405180910390a3505050565b6111c6848484610dd9565b6111d284848484611543565b611211576040517f08c379a0000000000000000000000000000000000000000000000000000000008152600401611208906120c4565b60405180910390fd5b50505050565b606060405180602001604052806000815250905090565b606061123982610bce565b611278576040517f08c379a000000000000000000000000000000000000000000000000000000000815260040161126f90612264565b60405180910390fd5b6000611282611217565b905060008151116112a257604051806020016040528060008152506112cd565b806112ac846116da565b6040516020016112bd929190611ffc565b6040516020818303038152906040525b915050919050565b6001816000016000828254019250508190555050565b600073ffffffffffffffffffffffffffffffffffffffff168273ffffffffffffffffffffffffffffffffffffffff16141561135b576040517f08c379a000000000000000000000000000000000000000000000000000000000815260040161135290612204565b60405180910390fd5b61136481610bce565b156113a4576040517f08c379a000000000000000000000000000000000000000000000000000000000815260040161139b90612104565b60405180910390fd5b6113b060008383611539565b6001600360008473ffffffffffffffffffffffffffffffffffffffff1673ffffffffffffffffffffffffffffffffffffffff168152602001908152602001600020600082825461140091906123a9565b92505081905550816002600083815260200190815260200160002060006101000a81548173ffffffffffffffffffffffffffffffffffffffff021916908373ffffffffffffffffffffffffffffffffffffffff160217905550808273ffffffffffffffffffffffffffffffffffffffff16600073ffffffffffffffffffffffffffffffffffffffff167fddf252ad1be2c89b69c2b068fc378daa952ba7f163c4a11628f55a4df523b3ef60405160405180910390a46114c16000838361153e565b5050565b6114ce82610bce565b61150d576040517f08c379a0000000000000000000000000000000000000000000000000000000008152600401611504906121e4565b60405180910390fd5b806006600084815260200190815260200160002090805190602001906115349291906118aa565b505050565b505050565b505050565b60006115648473ffffffffffffffffffffffffffffffffffffffff16611887565b156116cd578373ffffffffffffffffffffffffffffffffffffffff1663150b7a0261158d610c3a565b8786866040518563ffffffff1660e01b81526004016115af949392919061203b565b602060405180830381600087803b1580156115c957600080fd5b505af19250505080156115fa57506040513d601f19601f820116820180604052508101906115f79190611caa565b60015b61167d573d806000811461162a576040519150601f19603f3d011682016040523d82523d6000602084013e61162f565b606091505b50600081511415611675576040517f08c379a000000000000000000000000000000000000000000000000000000000815260040161166c906120c4565b60405180910390fd5b805181602001fd5b63150b7a0260e01b7bffffffffffffffffffffffffffffffffffffffffffffffffffffffff1916817bffffffffffffffffffffffffffffffffffffffffffffffffffffffff1916149150506116d2565b600190505b949350505050565b60606000821415611722576040518060400160405280600181526020017f30000000000000000000000000000000000000000000000000000000000000008152509050611882565b600082905060005b6000821461175457808061173d9061257d565b915050600a8261174d91906123ff565b915061172a565b60008167ffffffffffffffff811115611796577f4e487b7100000000000000000000000000000000000000000000000000000000600052604160045260246000fd5b6040519080825280601f01601f1916602001820160405280156117c85781602001600182028036833780820191505090505b5090505b6000851461187b576001826117e19190612430565b9150600a856117f091906125c6565b60306117fc91906123a9565b60f81b818381518110611838577f4e487b7100000000000000000000000000000000000000000000000000000000600052603260045260246000fd5b60200101907effffffffffffffffffffffffffffffffffffffffffffffffffffffffffffff1916908160001a905350600a8561187491906123ff565b94506117cc565b8093505050505b919050565b6000808273ffffffffffffffffffffffffffffffffffffffff163b119050919050565b8280546118b69061251a565b90600052602060002090601f0160209004810192826118d8576000855561191f565b82601f106118f157805160ff191683800117855561191f565b8280016001018555821561191f579182015b8281111561191e578251825591602001919060010190611903565b5b50905061192c9190611930565b5090565b5b80821115611949576000816000905550600101611931565b5090565b600061196061195b84612304565b6122df565b90508281526020810184848401111561197857600080fd5b6119838482856124d8565b509392505050565b600061199e61199984612335565b6122df565b9050828152602081018484840111156119b657600080fd5b6119c18482856124d8565b509392505050565b6000813590506119d881612b42565b92915050565b6000813590506119ed81612b59565b92915050565b600081359050611a0281612b70565b92915050565b600081519050611a1781612b70565b92915050565b600082601f830112611a2e57600080fd5b8135611a3e84826020860161194d565b91505092915050565b600082601f830112611a5857600080fd5b8135611a6884826020860161198b565b91505092915050565b600081359050611a8081612b87565b92915050565b600060208284031215611a9857600080fd5b6000611aa6848285016119c9565b91505092915050565b60008060408385031215611ac257600080fd5b6000611ad0858286016119c9565b9250506020611ae1858286016119c9565b9150509250929050565b600080600060608486031215611b0057600080fd5b6000611b0e868287016119c9565b9350506020611b1f868287016119c9565b9250506040611b3086828701611a71565b9150509250925092565b60008060008060808587031215611b5057600080fd5b6000611b5e878288016119c9565b9450506020611b6f878288016119c9565b9350506040611b8087828801611a71565b925050606085013567ffffffffffffffff811115611b9d57600080fd5b611ba987828801611a1d565b91505092959194509250565b60008060408385031215611bc857600080fd5b6000611bd6858286016119c9565b9250506020611be7858286016119de565b9150509250929050565b60008060408385031215611c0457600080fd5b6000611c12858286016119c9565b925050602083013567ffffffffffffffff811115611c2f57600080fd5b611c3b85828601611a47565b9150509250929050565b60008060408385031215611c5857600080fd5b6000611c66858286016119c9565b9250506020611c7785828601611a71565b9150509250929050565b600060208284031215611c9357600080fd5b6000611ca1848285016119f3565b91505092915050565b600060208284031215611cbc57600080fd5b6000611cca84828501611a08565b91505092915050565b600060208284031215611ce557600080fd5b6000611cf384828501611a71565b91505092915050565b611d0581612464565b82525050565b611d1481612476565b82525050565b6000611d2582612366565b611d2f818561237c565b9350611d3f8185602086016124e7565b611d48816126b3565b840191505092915050565b6000611d5e82612371565b611d68818561238d565b9350611d788185602086016124e7565b611d81816126b3565b840191505092915050565b6000611d9782612371565b611da1818561239e565b9350611db18185602086016124e7565b80840191505092915050565b6000611dca60328361238d565b9150611dd5826126c4565b604082019050919050565b6000611ded60258361238d565b9150611df882612713565b604082019050919050565b6000611e10601c8361238d565b9150611e1b82612762565b602082019050919050565b6000611e3360248361238d565b9150611e3e8261278b565b604082019050919050565b6000611e5660198361238d565b9150611e61826127da565b602082019050919050565b6000611e79602c8361238d565b9150611e8482612803565b604082019050919050565b6000611e9c60388361238d565b9150611ea782612852565b604082019050919050565b6000611ebf602a8361238d565b9150611eca826128a1565b604082019050919050565b6000611ee260298361238d565b9150611eed826128f0565b604082019050919050565b6000611f05602e8361238d565b9150611f108261293f565b604082019050919050565b6000611f2860208361238d565b9150611f338261298e565b602082019050919050565b6000611f4b60318361238d565b9150611f56826129b7565b604082019050919050565b6000611f6e602c8361238d565b9150611f7982612a06565b604082019050919050565b6000611f91602f8361238d565b9150611f9c82612a55565b604082019050919050565b6000611fb460218361238d565b9150611fbf82612aa4565b604082019050919050565b6000611fd760318361238d565b9150611fe282612af3565b604082019050919050565b611ff6816124ce565b82525050565b60006120088285611d8c565b91506120148284611d8c565b91508190509392505050565b60006020820190506120356000830184611cfc565b92915050565b60006080820190506120506000830187611cfc565b61205d6020830186611cfc565b61206a6040830185611fed565b818103606083015261207c8184611d1a565b905095945050505050565b600060208201905061209c6000830184611d0b565b92915050565b600060208201905081810360008301526120bc8184611d53565b905092915050565b600060208201905081810360008301526120dd81611dbd565b9050919050565b600060208201905081810360008301526120fd81611de0565b9050919050565b6000602082019050818103600083015261211d81611e03565b9050919050565b6000602082019050818103600083015261213d81611e26565b9050919050565b6000602082019050818103600083015261215d81611e49565b9050919050565b6000602082019050818103600083015261217d81611e6c565b9050919050565b6000602082019050818103600083015261219d81611e8f565b9050919050565b600060208201905081810360008301526121bd81611eb2565b9050919050565b600060208201905081810360008301526121dd81611ed5565b9050919050565b600060208201905081810360008301526121fd81611ef8565b9050919050565b6000602082019050818103600083015261221d81611f1b565b9050919050565b6000602082019050818103600083015261223d81611f3e565b9050919050565b6000602082019050818103600083015261225d81611f61565b9050919050565b6000602082019050818103600083015261227d81611f84565b9050919050565b6000602082019050818103600083015261229d81611fa7565b9050919050565b600060208201905081810360008301526122bd81611fca565b9050919050565b60006020820190506122d96000830184611fed565b92915050565b60006122e96122fa565b90506122f5828261254c565b919050565b6000604051905090565b600067ffffffffffffffff82111561231f5761231e612684565b5b612328826126b3565b9050602081019050919050565b600067ffffffffffffffff8211156123505761234f612684565b5b612359826126b3565b9050602081019050919050565b600081519050919050565b600081519050919050565b600082825260208201905092915050565b600082825260208201905092915050565b600081905092915050565b60006123b4826124ce565b91506123bf836124ce565b9250827fffffffffffffffffffffffffffffffffffffffffffffffffffffffffffffffff038211156123f4576123f36125f7565b5b828201905092915050565b600061240a826124ce565b9150612415836124ce565b92508261242557612424612626565b5b828204905092915050565b600061243b826124ce565b9150612446836124ce565b925082821015612459576124586125f7565b5b828203905092915050565b600061246f826124ae565b9050919050565b60008115159050919050565b60007fffffffff0000000000000000000000000000000000000000000000000000000082169050919050565b600073ffffffffffffffffffffffffffffffffffffffff82169050919050565b6000819050919050565b82818337600083830152505050565b60005b838110156125055780820151818401526020810190506124ea565b83811115612514576000848401525b50505050565b6000600282049050600182168061253257607f821691505b6020821081141561254657612545612655565b5b50919050565b612555826126b3565b810181811067ffffffffffffffff8211171561257457612573612684565b5b80604052505050565b6000612588826124ce565b91507fffffffffffffffffffffffffffffffffffffffffffffffffffffffffffffffff8214156125bb576125ba6125f7565b5b600182019050919050565b60006125d1826124ce565b91506125dc836124ce565b9250826125ec576125eb612626565b5b828206905092915050565b7f4e487b7100000000000000000000000000000000000000000000000000000000600052601160045260246000fd5b7f4e487b7100000000000000000000000000000000000000000000000000000000600052601260045260246000fd5b7f4e487b7100000000000000000000000000000000000000000000000000000000600052602260045260246000fd5b7f4e487b7100000000000000000000000000000000000000000000000000000000600052604160045260246000fd5b6000601f19601f8301169050919050565b7f4552433732313a207472616e7366657220746f206e6f6e20455243373231526560008201527f63656976657220696d706c656d656e7465720000000000000000000000000000602082015250565b7f4552433732313a207472616e736665722066726f6d20696e636f72726563742060008201527f6f776e6572000000000000000000000000000000000000000000000000000000602082015250565b7f4552433732313a20746f6b656e20616c7265616479206d696e74656400000000600082015250565b7f4552433732313a207472616e7366657220746f20746865207a65726f2061646460008201527f7265737300000000000000000000000000000000000000000000000000000000602082015250565b7f4552433732313a20617070726f766520746f2063616c6c657200000000000000600082015250565b7f4552433732313a206f70657261746f7220717565727920666f72206e6f6e657860008201527f697374656e7420746f6b656e0000000000000000000000000000000000000000602082015250565b7f4552433732313a20617070726f76652063616c6c6572206973206e6f74206f7760008201527f6e6572206e6f7220617070726f76656420666f7220616c6c0000000000000000602082015250565b7f4552433732313a2062616c616e636520717565727920666f7220746865207a6560008201527f726f206164647265737300000000000000000000000000000000000000000000602082015250565b7f4552433732313a206f776e657220717565727920666f72206e6f6e657869737460008201527f656e7420746f6b656e0000000000000000000000000000000000000000000000602082015250565b7f45524337323155524953746f726167653a2055524920736574206f66206e6f6e60008201527f6578697374656e7420746f6b656e000000000000000000000000000000000000602082015250565b7f4552433732313a206d696e7420746f20746865207a65726f2061646472657373600082015250565b7f45524337323155524953746f726167653a2055524920717565727920666f722060008201527f6e6f6e6578697374656e7420746f6b656e000000000000000000000000000000602082015250565b7f4552433732313a20617070726f76656420717565727920666f72206e6f6e657860008201527f697374656e7420746f6b656e0000000000000000000000000000000000000000602082015250565b7f4552433732314d657461646174613a2055524920717565727920666f72206e6f60008201527f6e6578697374656e7420746f6b656e0000000000000000000000000000000000602082015250565b7f4552433732313a20617070726f76616c20746f2063757272656e74206f776e6560008201527f7200000000000000000000000000000000000000000000000000000000000000602082015250565b7f4552433732313a207472616e736665722063616c6c6572206973206e6f74206f60008201527f776e6572206e6f7220617070726f766564000000000000000000000000000000602082015250565b612b4b81612464565b8114612b5657600080fd5b50565b612b6281612476565b8114612b6d57600080fd5b50565b612b7981612482565b8114612b8457600080fd5b50565b612b90816124ce565b8114612b9b57600080fd5b5056fea26469706673582212209c79d0612db46dc4278a354b327b4d1347430dba67a928528d39d67aaa59c67b64736f6c63430008040033",
  "immutableReferences": {},
  "source": "// contracts/GameItem.sol\n// SPDX-License-Identifier: MIT\npragma solidity ^0.8.0;\n\nimport \"@openzeppelin/contracts/token/ERC721/ERC721.sol\";\nimport \"@openzeppelin/contracts/token/ERC721/extensions/ERC721URIStorage.sol\";\nimport \"@openzeppelin/contracts/utils/Counters.sol\";\n\ncontract GameItem is ERC721URIStorage {\n    using Counters for Counters.Counter;\n    Counters.Counter private _tokenIds;\n\n    constructor() ERC721(\"GameItem\", \"ITM\") {}\n\n    function awardItem(address player, string memory tokenURI)\n        public\n        returns (uint256)\n    {\n        _tokenIds.increment();\n\n        uint256 newItemId = _tokenIds.current();\n        _mint(player, newItemId);\n        _setTokenURI(newItemId, tokenURI);\n\n        return newItemId;\n    }\n\n    function currentSupply() public view returns (uint256) {\n        return _tokenIds.current();\n    }\n}\n",
  "sourcePath": "/Users/surge/Projects/web3/avax-truffle/avax-rock-paper-scissors/contracts/GameItem.sol",
  "compiler": {
    "name": "solc",
    "version": "0.8.4+commit.c7e474f2.Emscripten.clang"
  },
  "schemaVersion": "3.4.6",
  "updatedAt": "2022-04-25T20:43:01.350Z",
  "networkType": "ethereum",
  "devdoc": {
    "kind": "dev",
    "methods": {
      "approve(address,uint256)": {
        "details": "See {IERC721-approve}."
      },
      "balanceOf(address)": {
        "details": "See {IERC721-balanceOf}."
      },
      "getApproved(uint256)": {
        "details": "See {IERC721-getApproved}."
      },
      "isApprovedForAll(address,address)": {
        "details": "See {IERC721-isApprovedForAll}."
      },
      "name()": {
        "details": "See {IERC721Metadata-name}."
      },
      "ownerOf(uint256)": {
        "details": "See {IERC721-ownerOf}."
      },
      "safeTransferFrom(address,address,uint256)": {
        "details": "See {IERC721-safeTransferFrom}."
      },
      "safeTransferFrom(address,address,uint256,bytes)": {
        "details": "See {IERC721-safeTransferFrom}."
      },
      "setApprovalForAll(address,bool)": {
        "details": "See {IERC721-setApprovalForAll}."
      },
      "supportsInterface(bytes4)": {
        "details": "See {IERC165-supportsInterface}."
      },
      "symbol()": {
        "details": "See {IERC721Metadata-symbol}."
      },
      "tokenURI(uint256)": {
        "details": "See {IERC721Metadata-tokenURI}."
      },
      "transferFrom(address,address,uint256)": {
        "details": "See {IERC721-transferFrom}."
      }
    },
    "version": 1
  },
  "userdoc": {
    "kind": "user",
    "methods": {},
    "version": 1
  }
}