{
  "contractName": "SurgeToken",
  "abi": [
    {
      "inputs": [
        {
          "internalType": "string",
          "name": "_name",
          "type": "string"
        }
      ],
      "stateMutability": "nonpayable",
      "type": "constructor"
    },
    {
      "anonymous": false,
      "inputs": [
        {
          "indexed": true,
          "internalType": "address",
          "name": "account",
          "type": "address"
        },
        {
          "indexed": true,
          "internalType": "address",
          "name": "operator",
          "type": "address"
        },
        {
          "indexed": false,
          "internalType": "bool",
          "name": "approved",
          "type": "bool"
        }
      ],
      "name": "ApprovalForAll",
      "type": "event"
    },
    {
      "anonymous": false,
      "inputs": [
        {
          "indexed": true,
          "internalType": "address",
          "name": "previousOwner",
          "type": "address"
        },
        {
          "indexed": true,
          "internalType": "address",
          "name": "newOwner",
          "type": "address"
        }
      ],
      "name": "OwnershipTransferred",
      "type": "event"
    },
    {
      "anonymous": false,
      "inputs": [
        {
          "indexed": false,
          "internalType": "address",
          "name": "account",
          "type": "address"
        }
      ],
      "name": "Paused",
      "type": "event"
    },
    {
      "anonymous": false,
      "inputs": [
        {
          "indexed": true,
          "internalType": "address",
          "name": "operator",
          "type": "address"
        },
        {
          "indexed": true,
          "internalType": "address",
          "name": "from",
          "type": "address"
        },
        {
          "indexed": true,
          "internalType": "address",
          "name": "to",
          "type": "address"
        },
        {
          "indexed": false,
          "internalType": "uint256[]",
          "name": "ids",
          "type": "uint256[]"
        },
        {
          "indexed": false,
          "internalType": "uint256[]",
          "name": "values",
          "type": "uint256[]"
        }
      ],
      "name": "TransferBatch",
      "type": "event"
    },
    {
      "anonymous": false,
      "inputs": [
        {
          "indexed": true,
          "internalType": "address",
          "name": "operator",
          "type": "address"
        },
        {
          "indexed": true,
          "internalType": "address",
          "name": "from",
          "type": "address"
        },
        {
          "indexed": true,
          "internalType": "address",
          "name": "to",
          "type": "address"
        },
        {
          "indexed": false,
          "internalType": "uint256",
          "name": "id",
          "type": "uint256"
        },
        {
          "indexed": false,
          "internalType": "uint256",
          "name": "value",
          "type": "uint256"
        }
      ],
      "name": "TransferSingle",
      "type": "event"
    },
    {
      "anonymous": false,
      "inputs": [
        {
          "indexed": false,
          "internalType": "string",
          "name": "value",
          "type": "string"
        },
        {
          "indexed": true,
          "internalType": "uint256",
          "name": "id",
          "type": "uint256"
        }
      ],
      "name": "URI",
      "type": "event"
    },
    {
      "anonymous": false,
      "inputs": [
        {
          "indexed": false,
          "internalType": "address",
          "name": "account",
          "type": "address"
        }
      ],
      "name": "Unpaused",
      "type": "event"
    },
    {
      "inputs": [],
      "name": "Paper",
      "outputs": [
        {
          "internalType": "uint256",
          "name": "",
          "type": "uint256"
        }
      ],
      "stateMutability": "view",
      "type": "function",
      "constant": true
    },
    {
      "inputs": [],
      "name": "Rock",
      "outputs": [
        {
          "internalType": "uint256",
          "name": "",
          "type": "uint256"
        }
      ],
      "stateMutability": "view",
      "type": "function",
      "constant": true
    },
    {
      "inputs": [],
      "name": "Scissors",
      "outputs": [
        {
          "internalType": "uint256",
          "name": "",
          "type": "uint256"
        }
      ],
      "stateMutability": "view",
      "type": "function",
      "constant": true
    },
    {
      "inputs": [
        {
          "internalType": "address",
          "name": "account",
          "type": "address"
        },
        {
          "internalType": "uint256",
          "name": "id",
          "type": "uint256"
        }
      ],
      "name": "balanceOf",
      "outputs": [
        {
          "internalType": "uint256",
          "name": "",
          "type": "uint256"
        }
      ],
      "stateMutability": "view",
      "type": "function",
      "constant": true
    },
    {
      "inputs": [
        {
          "internalType": "address[]",
          "name": "accounts",
          "type": "address[]"
        },
        {
          "internalType": "uint256[]",
          "name": "ids",
          "type": "uint256[]"
        }
      ],
      "name": "balanceOfBatch",
      "outputs": [
        {
          "internalType": "uint256[]",
          "name": "",
          "type": "uint256[]"
        }
      ],
      "stateMutability": "view",
      "type": "function",
      "constant": true
    },
    {
      "inputs": [
        {
          "internalType": "address",
          "name": "account",
          "type": "address"
        },
        {
          "internalType": "uint256",
          "name": "id",
          "type": "uint256"
        },
        {
          "internalType": "uint256",
          "name": "value",
          "type": "uint256"
        }
      ],
      "name": "burn",
      "outputs": [],
      "stateMutability": "nonpayable",
      "type": "function"
    },
    {
      "inputs": [
        {
          "internalType": "address",
          "name": "account",
          "type": "address"
        },
        {
          "internalType": "uint256[]",
          "name": "ids",
          "type": "uint256[]"
        },
        {
          "internalType": "uint256[]",
          "name": "values",
          "type": "uint256[]"
        }
      ],
      "name": "burnBatch",
      "outputs": [],
      "stateMutability": "nonpayable",
      "type": "function"
    },
    {
      "inputs": [
        {
          "internalType": "uint256",
          "name": "id",
          "type": "uint256"
        }
      ],
      "name": "exists",
      "outputs": [
        {
          "internalType": "bool",
          "name": "",
          "type": "bool"
        }
      ],
      "stateMutability": "view",
      "type": "function",
      "constant": true
    },
    {
      "inputs": [
        {
          "internalType": "address",
          "name": "account",
          "type": "address"
        },
        {
          "internalType": "address",
          "name": "operator",
          "type": "address"
        }
      ],
      "name": "isApprovedForAll",
      "outputs": [
        {
          "internalType": "bool",
          "name": "",
          "type": "bool"
        }
      ],
      "stateMutability": "view",
      "type": "function",
      "constant": true
    },
    {
      "inputs": [],
      "name": "name",
      "outputs": [
        {
          "internalType": "string",
          "name": "",
          "type": "string"
        }
      ],
      "stateMutability": "view",
      "type": "function",
      "constant": true
    },
    {
      "inputs": [],
      "name": "owner",
      "outputs": [
        {
          "internalType": "address",
          "name": "",
          "type": "address"
        }
      ],
      "stateMutability": "view",
      "type": "function",
      "constant": true
    },
    {
      "inputs": [],
      "name": "paused",
      "outputs": [
        {
          "internalType": "bool",
          "name": "",
          "type": "bool"
        }
      ],
      "stateMutability": "view",
      "type": "function",
      "constant": true
    },
    {
      "inputs": [],
      "name": "renounceOwnership",
      "outputs": [],
      "stateMutability": "nonpayable",
      "type": "function"
    },
    {
      "inputs": [
        {
          "internalType": "address",
          "name": "from",
          "type": "address"
        },
        {
          "internalType": "address",
          "name": "to",
          "type": "address"
        },
        {
          "internalType": "uint256[]",
          "name": "ids",
          "type": "uint256[]"
        },
        {
          "internalType": "uint256[]",
          "name": "amounts",
          "type": "uint256[]"
        },
        {
          "internalType": "bytes",
          "name": "data",
          "type": "bytes"
        }
      ],
      "name": "safeBatchTransferFrom",
      "outputs": [],
      "stateMutability": "nonpayable",
      "type": "function"
    },
    {
      "inputs": [
        {
          "internalType": "address",
          "name": "from",
          "type": "address"
        },
        {
          "internalType": "address",
          "name": "to",
          "type": "address"
        },
        {
          "internalType": "uint256",
          "name": "id",
          "type": "uint256"
        },
        {
          "internalType": "uint256",
          "name": "amount",
          "type": "uint256"
        },
        {
          "internalType": "bytes",
          "name": "data",
          "type": "bytes"
        }
      ],
      "name": "safeTransferFrom",
      "outputs": [],
      "stateMutability": "nonpayable",
      "type": "function"
    },
    {
      "inputs": [
        {
          "internalType": "address",
          "name": "operator",
          "type": "address"
        },
        {
          "internalType": "bool",
          "name": "approved",
          "type": "bool"
        }
      ],
      "name": "setApprovalForAll",
      "outputs": [],
      "stateMutability": "nonpayable",
      "type": "function"
    },
    {
      "inputs": [
        {
          "internalType": "bytes4",
          "name": "interfaceId",
          "type": "bytes4"
        }
      ],
      "name": "supportsInterface",
      "outputs": [
        {
          "internalType": "bool",
          "name": "",
          "type": "bool"
        }
      ],
      "stateMutability": "view",
      "type": "function",
      "constant": true
    },
    {
      "inputs": [
        {
          "internalType": "uint256",
          "name": "",
          "type": "uint256"
        }
      ],
      "name": "tokenIds",
      "outputs": [
        {
          "internalType": "uint256",
          "name": "",
          "type": "uint256"
        }
      ],
      "stateMutability": "view",
      "type": "function",
      "constant": true
    },
    {
      "inputs": [
        {
          "internalType": "uint256",
          "name": "",
          "type": "uint256"
        }
      ],
      "name": "tokenValues",
      "outputs": [
        {
          "internalType": "uint256",
          "name": "",
          "type": "uint256"
        }
      ],
      "stateMutability": "view",
      "type": "function",
      "constant": true
    },
    {
      "inputs": [
        {
          "internalType": "uint256",
          "name": "id",
          "type": "uint256"
        }
      ],
      "name": "totalSupply",
      "outputs": [
        {
          "internalType": "uint256",
          "name": "",
          "type": "uint256"
        }
      ],
      "stateMutability": "view",
      "type": "function",
      "constant": true
    },
    {
      "inputs": [
        {
          "internalType": "address",
          "name": "newOwner",
          "type": "address"
        }
      ],
      "name": "transferOwnership",
      "outputs": [],
      "stateMutability": "nonpayable",
      "type": "function"
    },
    {
      "inputs": [],
      "name": "getTokensCount",
      "outputs": [
        {
          "internalType": "uint256",
          "name": "",
          "type": "uint256"
        }
      ],
      "stateMutability": "view",
      "type": "function",
      "constant": true
    },
    {
      "inputs": [
        {
          "internalType": "uint256",
          "name": "_tokenid",
          "type": "uint256"
        }
      ],
      "name": "uri",
      "outputs": [
        {
          "internalType": "string",
          "name": "",
          "type": "string"
        }
      ],
      "stateMutability": "pure",
      "type": "function",
      "constant": true
    },
    {
      "inputs": [
        {
          "internalType": "string",
          "name": "newuri",
          "type": "string"
        }
      ],
      "name": "setURI",
      "outputs": [],
      "stateMutability": "nonpayable",
      "type": "function"
    },
    {
      "inputs": [],
      "name": "pause",
      "outputs": [],
      "stateMutability": "nonpayable",
      "type": "function"
    },
    {
      "inputs": [],
      "name": "unpause",
      "outputs": [],
      "stateMutability": "nonpayable",
      "type": "function"
    },
    {
      "inputs": [
        {
          "internalType": "address",
          "name": "account",
          "type": "address"
        },
        {
          "internalType": "uint256",
          "name": "id",
          "type": "uint256"
        },
        {
          "internalType": "uint256",
          "name": "amount",
          "type": "uint256"
        },
        {
          "internalType": "bytes",
          "name": "data",
          "type": "bytes"
        }
      ],
      "name": "mint",
      "outputs": [],
      "stateMutability": "nonpayable",
      "type": "function"
    },
    {
      "inputs": [
        {
          "internalType": "address",
          "name": "to",
          "type": "address"
        },
        {
          "internalType": "uint256[]",
          "name": "ids",
          "type": "uint256[]"
        },
        {
          "internalType": "uint256[]",
          "name": "amounts",
          "type": "uint256[]"
        },
        {
          "internalType": "bytes",
          "name": "data",
          "type": "bytes"
        }
      ],
      "name": "mintBatch",
      "outputs": [],
      "stateMutability": "nonpayable",
      "type": "function"
    }
  ],
  "bytecode": "0x608060405260405180606001604052806001815260200160028152602001600381525060079060036200003492919062000b56565b506040518060600160405280600160ff168152602001600160ff168152602001600160ff1681525060089060036200006e92919062000ba8565b503480156200007c57600080fd5b50604051620060d5380380620060d58339818101604052810190620000a2919062000d64565b6040518060a00160405280606281526020016200607360629139620000cd81620001f860201b60201c565b50620000ee620000e26200021460201b60201c565b6200021c60201b60201c565b6000600360146101000a81548160ff02191690831515021790555080600590805190602001906200012192919062000bff565b506000600681905550620001f13360078054806020026020016040519081016040528092919081815260200182805480156200017d57602002820191906000526020600020905b81548152602001906001019080831162000168575b50505050506008805480602002602001604051908101604052809291908181526020018280548015620001d057602002820191906000526020600020905b815481526020019060010190808311620001bb575b505050505060405180602001604052806000815250620002e260201b60201c565b5062001734565b80600290805190602001906200021092919062000bff565b5050565b600033905090565b6000600360009054906101000a900473ffffffffffffffffffffffffffffffffffffffff16905081600360006101000a81548173ffffffffffffffffffffffffffffffffffffffff021916908373ffffffffffffffffffffffffffffffffffffffff1602179055508173ffffffffffffffffffffffffffffffffffffffff168173ffffffffffffffffffffffffffffffffffffffff167f8be0079c531659141344cd1fd0a4f28419497f9722a3daafe3b4186f6b6457e060405160405180910390a35050565b620002f26200021460201b60201c565b73ffffffffffffffffffffffffffffffffffffffff1662000318620003a760201b60201c565b73ffffffffffffffffffffffffffffffffffffffff161462000371576040517f08c379a00000000000000000000000000000000000000000000000000000000081526004016200036890620010f2565b60405180910390fd5b6200038584848484620003d160201b60201c565b8251600660008282546200039a919062001228565b9250508190555050505050565b6000600360009054906101000a900473ffffffffffffffffffffffffffffffffffffffff16905090565b600073ffffffffffffffffffffffffffffffffffffffff168473ffffffffffffffffffffffffffffffffffffffff16141562000444576040517f08c379a00000000000000000000000000000000000000000000000000000000081526004016200043b9062001136565b60405180910390fd5b81518351146200048b576040517f08c379a0000000000000000000000000000000000000000000000000000000008152600401620004829062001114565b60405180910390fd5b60006200049d6200021460201b60201c565b9050620004b6816000878787876200066360201b60201c565b60005b8451811015620005c357838181518110620004fd577f4e487b7100000000000000000000000000000000000000000000000000000000600052603260045260246000fd5b602002602001015160008087848151811062000542577f4e487b7100000000000000000000000000000000000000000000000000000000600052603260045260246000fd5b6020026020010151815260200190815260200160002060008873ffffffffffffffffffffffffffffffffffffffff1673ffffffffffffffffffffffffffffffffffffffff1681526020019081526020016000206000828254620005a6919062001228565b925050819055508080620005ba90620013cc565b915050620004b9565b508473ffffffffffffffffffffffffffffffffffffffff16600073ffffffffffffffffffffffffffffffffffffffff168273ffffffffffffffffffffffffffffffffffffffff167f4a39dc06d4c0dbc64b70af90fd698a233a518aa5d07e595d983b8c0526c8f7fb87876040516200063d9291906200102d565b60405180910390a46200065c81600087878787620006d960201b60201c565b5050505050565b62000673620008e360201b60201c565b15620006b6576040517f08c379a0000000000000000000000000000000000000000000000000000000008152600401620006ad90620010d0565b60405180910390fd5b620006d1868686868686620008fa60201b620011da1760201c565b505050505050565b620007058473ffffffffffffffffffffffffffffffffffffffff1662000b2b60201b620013ec1760201c565b15620008db578373ffffffffffffffffffffffffffffffffffffffff1663bc197c8187878686866040518663ffffffff1660e01b81526004016200074e95949392919062000fbb565b602060405180830381600087803b1580156200076957600080fd5b505af19250505080156200079d57506040513d601f19601f820116820180604052508101906200079a919062000d38565b60015b6200084f57620007ac620014a7565b806308c379a01415620008105750620007c462001678565b80620007d1575062000812565b806040517f08c379a000000000000000000000000000000000000000000000000000000000815260040162000807919062001068565b60405180910390fd5b505b6040517f08c379a000000000000000000000000000000000000000000000000000000000815260040162000846906200108c565b60405180910390fd5b63bc197c8160e01b7bffffffffffffffffffffffffffffffffffffffffffffffffffffffff1916817bffffffffffffffffffffffffffffffffffffffffffffffffffffffff191614620008d9576040517f08c379a0000000000000000000000000000000000000000000000000000000008152600401620008d090620010ae565b60405180910390fd5b505b505050505050565b6000600360149054906101000a900460ff16905090565b6200091586868686868662000b4e60201b6200140f1760201c565b600073ffffffffffffffffffffffffffffffffffffffff168573ffffffffffffffffffffffffffffffffffffffff16141562000a1c5760005b835181101562000a1a5782818151811062000992577f4e487b7100000000000000000000000000000000000000000000000000000000600052603260045260246000fd5b602002602001015160046000868481518110620009d8577f4e487b7100000000000000000000000000000000000000000000000000000000600052603260045260246000fd5b602002602001015181526020019081526020016000206000828254620009ff919062001228565b925050819055508062000a1290620013cc565b90506200094e565b505b600073ffffffffffffffffffffffffffffffffffffffff168473ffffffffffffffffffffffffffffffffffffffff16141562000b235760005b835181101562000b215782818151811062000a99577f4e487b7100000000000000000000000000000000000000000000000000000000600052603260045260246000fd5b60200260200101516004600086848151811062000adf577f4e487b7100000000000000000000000000000000000000000000000000000000600052603260045260246000fd5b60200260200101518152602001908152602001600020600082825462000b06919062001285565b925050819055508062000b1990620013cc565b905062000a55565b505b505050505050565b6000808273ffffffffffffffffffffffffffffffffffffffff163b119050919050565b505050505050565b82805482825590600052602060002090810192821562000b95579160200282015b8281111562000b9457825182559160200191906001019062000b77565b5b50905062000ba4919062000c90565b5090565b82805482825590600052602060002090810192821562000bec579160200282015b8281111562000beb578251829060ff1690559160200191906001019062000bc9565b5b50905062000bfb919062000c90565b5090565b82805462000c0d9062001360565b90600052602060002090601f01602090048101928262000c31576000855562000c7d565b82601f1062000c4c57805160ff191683800117855562000c7d565b8280016001018555821562000c7d579182015b8281111562000c7c57825182559160200191906001019062000c5f565b5b50905062000c8c919062000c90565b5090565b5b8082111562000cab57600081600090555060010162000c91565b5090565b600062000cc662000cc08462001181565b62001158565b90508281526020810184848401111562000cdf57600080fd5b62000cec8482856200132a565b509392505050565b60008151905062000d05816200171a565b92915050565b600082601f83011262000d1d57600080fd5b815162000d2f84826020860162000caf565b91505092915050565b60006020828403121562000d4b57600080fd5b600062000d5b8482850162000cf4565b91505092915050565b60006020828403121562000d7757600080fd5b600082015167ffffffffffffffff81111562000d9257600080fd5b62000da08482850162000d0b565b91505092915050565b600062000db7838362000faa565b60208301905092915050565b62000dce81620012c0565b82525050565b600062000de182620011c7565b62000ded8185620011f5565b935062000dfa83620011b7565b8060005b8381101562000e3157815162000e15888262000da9565b975062000e2283620011e8565b92505060018101905062000dfe565b5085935050505092915050565b600062000e4b82620011d2565b62000e57818562001206565b935062000e698185602086016200132a565b62000e7481620014cc565b840191505092915050565b600062000e8c82620011dd565b62000e98818562001217565b935062000eaa8185602086016200132a565b62000eb581620014cc565b840191505092915050565b600062000ecf60348362001217565b915062000edc82620014ea565b604082019050919050565b600062000ef660288362001217565b915062000f038262001539565b604082019050919050565b600062000f1d60108362001217565b915062000f2a8262001588565b602082019050919050565b600062000f4460208362001217565b915062000f5182620015b1565b602082019050919050565b600062000f6b60288362001217565b915062000f7882620015da565b604082019050919050565b600062000f9260218362001217565b915062000f9f8262001629565b604082019050919050565b62000fb58162001320565b82525050565b600060a08201905062000fd2600083018862000dc3565b62000fe1602083018762000dc3565b818103604083015262000ff5818662000dd4565b905081810360608301526200100b818562000dd4565b9050818103608083015262001021818462000e3e565b90509695505050505050565b6000604082019050818103600083015262001049818562000dd4565b905081810360208301526200105f818462000dd4565b90509392505050565b6000602082019050818103600083015262001084818462000e7f565b905092915050565b60006020820190508181036000830152620010a78162000ec0565b9050919050565b60006020820190508181036000830152620010c98162000ee7565b9050919050565b60006020820190508181036000830152620010eb8162000f0e565b9050919050565b600060208201905081810360008301526200110d8162000f35565b9050919050565b600060208201905081810360008301526200112f8162000f5c565b9050919050565b60006020820190508181036000830152620011518162000f83565b9050919050565b60006200116462001177565b905062001172828262001396565b919050565b6000604051905090565b600067ffffffffffffffff8211156200119f576200119e62001478565b5b620011aa82620014cc565b9050602081019050919050565b6000819050602082019050919050565b600081519050919050565b600081519050919050565b600081519050919050565b6000602082019050919050565b600082825260208201905092915050565b600082825260208201905092915050565b600082825260208201905092915050565b6000620012358262001320565b9150620012428362001320565b9250827fffffffffffffffffffffffffffffffffffffffffffffffffffffffffffffffff038211156200127a57620012796200141a565b5b828201905092915050565b6000620012928262001320565b91506200129f8362001320565b925082821015620012b557620012b46200141a565b5b828203905092915050565b6000620012cd8262001300565b9050919050565b60007fffffffff0000000000000000000000000000000000000000000000000000000082169050919050565b600073ffffffffffffffffffffffffffffffffffffffff82169050919050565b6000819050919050565b60005b838110156200134a5780820151818401526020810190506200132d565b838111156200135a576000848401525b50505050565b600060028204905060018216806200137957607f821691505b6020821081141562001390576200138f62001449565b5b50919050565b620013a182620014cc565b810181811067ffffffffffffffff82111715620013c357620013c262001478565b5b80604052505050565b6000620013d98262001320565b91507fffffffffffffffffffffffffffffffffffffffffffffffffffffffffffffffff8214156200140f576200140e6200141a565b5b600182019050919050565b7f4e487b7100000000000000000000000000000000000000000000000000000000600052601160045260246000fd5b7f4e487b7100000000000000000000000000000000000000000000000000000000600052602260045260246000fd5b7f4e487b7100000000000000000000000000000000000000000000000000000000600052604160045260246000fd5b600060033d1115620014c95760046000803e620014c6600051620014dd565b90505b90565b6000601f19601f8301169050919050565b60008160e01c9050919050565b7f455243313135353a207472616e7366657220746f206e6f6e204552433131353560008201527f526563656976657220696d706c656d656e746572000000000000000000000000602082015250565b7f455243313135353a204552433131353552656365697665722072656a6563746560008201527f6420746f6b656e73000000000000000000000000000000000000000000000000602082015250565b7f5061757361626c653a2070617573656400000000000000000000000000000000600082015250565b7f4f776e61626c653a2063616c6c6572206973206e6f7420746865206f776e6572600082015250565b7f455243313135353a2069647320616e6420616d6f756e7473206c656e6774682060008201527f6d69736d61746368000000000000000000000000000000000000000000000000602082015250565b7f455243313135353a206d696e7420746f20746865207a65726f2061646472657360008201527f7300000000000000000000000000000000000000000000000000000000000000602082015250565b600060443d10156200168a5762001717565b6200169462001177565b60043d036004823e80513d602482011167ffffffffffffffff82111715620016be57505062001717565b808201805167ffffffffffffffff811115620016de575050505062001717565b80602083010160043d038501811115620016fd57505050505062001717565b6200170e8260200185018662001396565b82955050505050505b90565b6200172581620012d4565b81146200173157600080fd5b50565b61492f80620017446000396000f3fe608060405234801561001057600080fd5b50600436106101c35760003560e01c80636b20c454116100f9578063af769eff11610097578063e985e9c511610071578063e985e9c5146104e0578063f242432a14610510578063f2fde38b1461052c578063f5298aca14610548576101c3565b8063af769eff14610462578063bd85b03914610480578063d58778d6146104b0576101c3565b8063731133e9116100d3578063731133e9146104025780638456cb591461041e5780638da5cb5b14610428578063a22cb46514610446576101c3565b80636b20c454146103ac5780636b225fe4146103c8578063715018a6146103f8576101c3565b80632eb2c2d6116101665780634e1273f4116101405780634e1273f4146103105780634f558e79146103405780635c975abb14610370578063606895571461038e576101c3565b80632eb2c2d6146102cc5780633962f82d146102e85780633f4ba83a14610306576101c3565b806306fdde03116101a257806306fdde03146102445780630e89341c146102625780631f7fdffa1461029257806325ea269e146102ae576101c3565b8062fdd58e146101c857806301ffc9a7146101f857806302fe530514610228575b600080fd5b6101e260048036038101906101dd91906133d7565b610564565b6040516101ef9190613db3565b60405180910390f35b610212600480360381019061020d9190613549565b61062d565b60405161021f9190613b56565b60405180910390f35b610242600480360381019061023d919061359b565b61070f565b005b61024c610797565b6040516102599190613b71565b60405180910390f35b61027c600480360381019061027791906135dc565b610825565b6040516102899190613b71565b60405180910390f35b6102ac60048036038101906102a791906132f0565b610856565b005b6102b66108fe565b6040516102c39190613db3565b60405180910390f35b6102e660048036038101906102e19190613123565b610903565b005b6102f06109a4565b6040516102fd9190613db3565b60405180910390f35b61030e6109ae565b005b61032a600480360381019061032591906134dd565b610a34565b6040516103379190613afd565b60405180910390f35b61035a600480360381019061035591906135dc565b610be5565b6040516103679190613b56565b60405180910390f35b610378610bf9565b6040516103859190613b56565b60405180910390f35b610396610c10565b6040516103a39190613db3565b60405180910390f35b6103c660048036038101906103c19190613271565b610c15565b005b6103e260048036038101906103dd91906135dc565b610cb2565b6040516103ef9190613db3565b60405180910390f35b610400610cd6565b005b61041c60048036038101906104179190613462565b610d5e565b005b610426610e04565b005b610430610e8a565b60405161043d9190613a20565b60405180910390f35b610460600480360381019061045b919061339b565b610eb4565b005b61046a610eca565b6040516104779190613db3565b60405180910390f35b61049a600480360381019061049591906135dc565b610ecf565b6040516104a79190613db3565b60405180910390f35b6104ca60048036038101906104c591906135dc565b610eec565b6040516104d79190613db3565b60405180910390f35b6104fa60048036038101906104f591906130e7565b610f10565b6040516105079190613b56565b60405180910390f35b61052a600480360381019061052591906131e2565b610fa4565b005b610546600480360381019061054191906130be565b611045565b005b610562600480360381019061055d9190613413565b61113d565b005b60008073ffffffffffffffffffffffffffffffffffffffff168373ffffffffffffffffffffffffffffffffffffffff1614156105d5576040517f08c379a00000000000000000000000000000000000000000000000000000000081526004016105cc90613bf3565b60405180910390fd5b60008083815260200190815260200160002060008473ffffffffffffffffffffffffffffffffffffffff1673ffffffffffffffffffffffffffffffffffffffff16815260200190815260200160002054905092915050565b60007fd9b67a26000000000000000000000000000000000000000000000000000000007bffffffffffffffffffffffffffffffffffffffffffffffffffffffff1916827bffffffffffffffffffffffffffffffffffffffffffffffffffffffff191614806106f857507f0e89341c000000000000000000000000000000000000000000000000000000007bffffffffffffffffffffffffffffffffffffffffffffffffffffffff1916827bffffffffffffffffffffffffffffffffffffffffffffffffffffffff1916145b80610708575061070782611417565b5b9050919050565b610717611481565b73ffffffffffffffffffffffffffffffffffffffff16610735610e8a565b73ffffffffffffffffffffffffffffffffffffffff161461078b576040517f08c379a000000000000000000000000000000000000000000000000000000000815260040161078290613d13565b60405180910390fd5b61079481611489565b50565b600580546107a4906140c3565b80601f01602080910402602001604051908101604052809291908181526020018280546107d0906140c3565b801561081d5780601f106107f25761010080835404028352916020019161081d565b820191906000526020600020905b81548152906001019060200180831161080057829003601f168201915b505050505081565b6060610830826114a3565b60405160200161084091906139f3565b6040516020818303038152906040529050919050565b61085e611481565b73ffffffffffffffffffffffffffffffffffffffff1661087c610e8a565b73ffffffffffffffffffffffffffffffffffffffff16146108d2576040517f08c379a00000000000000000000000000000000000000000000000000000000081526004016108c990613d13565b60405180910390fd5b6108de84848484611650565b8251600660008282546108f19190613f52565b9250508190555050505050565b600381565b61090b611481565b73ffffffffffffffffffffffffffffffffffffffff168573ffffffffffffffffffffffffffffffffffffffff16148061095157506109508561094b611481565b610f10565b5b610990576040517f08c379a000000000000000000000000000000000000000000000000000000000815260040161098790613cb3565b60405180910390fd5b61099d85858585856118ba565b5050505050565b6000600654905090565b6109b6611481565b73ffffffffffffffffffffffffffffffffffffffff166109d4610e8a565b73ffffffffffffffffffffffffffffffffffffffff1614610a2a576040517f08c379a0000000000000000000000000000000000000000000000000000000008152600401610a2190613d13565b60405180910390fd5b610a32611c1a565b565b60608151835114610a7a576040517f08c379a0000000000000000000000000000000000000000000000000000000008152600401610a7190613d53565b60405180910390fd5b6000835167ffffffffffffffff811115610abd577f4e487b7100000000000000000000000000000000000000000000000000000000600052604160045260246000fd5b604051908082528060200260200182016040528015610aeb5781602001602082028036833780820191505090505b50905060005b8451811015610bda57610b84858281518110610b36577f4e487b7100000000000000000000000000000000000000000000000000000000600052603260045260246000fd5b6020026020010151858381518110610b77577f4e487b7100000000000000000000000000000000000000000000000000000000600052603260045260246000fd5b6020026020010151610564565b828281518110610bbd577f4e487b7100000000000000000000000000000000000000000000000000000000600052603260045260246000fd5b60200260200101818152505080610bd390614126565b9050610af1565b508091505092915050565b600080610bf183610ecf565b119050919050565b6000600360149054906101000a900460ff16905090565b600181565b610c1d611481565b73ffffffffffffffffffffffffffffffffffffffff168373ffffffffffffffffffffffffffffffffffffffff161480610c635750610c6283610c5d611481565b610f10565b5b610ca2576040517f08c379a0000000000000000000000000000000000000000000000000000000008152600401610c9990613c53565b60405180910390fd5b610cad838383611cbc565b505050565b60088181548110610cc257600080fd5b906000526020600020016000915090505481565b610cde611481565b73ffffffffffffffffffffffffffffffffffffffff16610cfc610e8a565b73ffffffffffffffffffffffffffffffffffffffff1614610d52576040517f08c379a0000000000000000000000000000000000000000000000000000000008152600401610d4990613d13565b60405180910390fd5b610d5c6000611fb9565b565b610d66611481565b73ffffffffffffffffffffffffffffffffffffffff16610d84610e8a565b73ffffffffffffffffffffffffffffffffffffffff1614610dda576040517f08c379a0000000000000000000000000000000000000000000000000000000008152600401610dd190613d13565b60405180910390fd5b610de68484848461207f565b60066000815480929190610df990614126565b919050555050505050565b610e0c611481565b73ffffffffffffffffffffffffffffffffffffffff16610e2a610e8a565b73ffffffffffffffffffffffffffffffffffffffff1614610e80576040517f08c379a0000000000000000000000000000000000000000000000000000000008152600401610e7790613d13565b60405180910390fd5b610e88612215565b565b6000600360009054906101000a900473ffffffffffffffffffffffffffffffffffffffff16905090565b610ec6610ebf611481565b83836122b8565b5050565b600281565b600060046000838152602001908152602001600020549050919050565b60078181548110610efc57600080fd5b906000526020600020016000915090505481565b6000600160008473ffffffffffffffffffffffffffffffffffffffff1673ffffffffffffffffffffffffffffffffffffffff16815260200190815260200160002060008373ffffffffffffffffffffffffffffffffffffffff1673ffffffffffffffffffffffffffffffffffffffff16815260200190815260200160002060009054906101000a900460ff16905092915050565b610fac611481565b73ffffffffffffffffffffffffffffffffffffffff168573ffffffffffffffffffffffffffffffffffffffff161480610ff25750610ff185610fec611481565b610f10565b5b611031576040517f08c379a000000000000000000000000000000000000000000000000000000000815260040161102890613c53565b60405180910390fd5b61103e8585858585612425565b5050505050565b61104d611481565b73ffffffffffffffffffffffffffffffffffffffff1661106b610e8a565b73ffffffffffffffffffffffffffffffffffffffff16146110c1576040517f08c379a00000000000000000000000000000000000000000000000000000000081526004016110b890613d13565b60405180910390fd5b600073ffffffffffffffffffffffffffffffffffffffff168173ffffffffffffffffffffffffffffffffffffffff161415611131576040517f08c379a000000000000000000000000000000000000000000000000000000000815260040161112890613c13565b60405180910390fd5b61113a81611fb9565b50565b611145611481565b73ffffffffffffffffffffffffffffffffffffffff168373ffffffffffffffffffffffffffffffffffffffff16148061118b575061118a83611185611481565b610f10565b5b6111ca576040517f08c379a00000000000000000000000000000000000000000000000000000000081526004016111c190613c53565b60405180910390fd5b6111d58383836126a7565b505050565b6111e886868686868661140f565b600073ffffffffffffffffffffffffffffffffffffffff168573ffffffffffffffffffffffffffffffffffffffff1614156112e65760005b83518110156112e457828181518110611262577f4e487b7100000000000000000000000000000000000000000000000000000000600052603260045260246000fd5b6020026020010151600460008684815181106112a7577f4e487b7100000000000000000000000000000000000000000000000000000000600052603260045260246000fd5b6020026020010151815260200190815260200160002060008282546112cc9190613f52565b92505081905550806112dd90614126565b9050611220565b505b600073ffffffffffffffffffffffffffffffffffffffff168473ffffffffffffffffffffffffffffffffffffffff1614156113e45760005b83518110156113e257828181518110611360577f4e487b7100000000000000000000000000000000000000000000000000000000600052603260045260246000fd5b6020026020010151600460008684815181106113a5577f4e487b7100000000000000000000000000000000000000000000000000000000600052603260045260246000fd5b6020026020010151815260200190815260200160002060008282546113ca9190613fd9565b92505081905550806113db90614126565b905061131e565b505b505050505050565b6000808273ffffffffffffffffffffffffffffffffffffffff163b119050919050565b505050505050565b60007f01ffc9a7000000000000000000000000000000000000000000000000000000007bffffffffffffffffffffffffffffffffffffffffffffffffffffffff1916827bffffffffffffffffffffffffffffffffffffffffffffffffffffffff1916149050919050565b600033905090565b806002908051906020019061149f929190612db6565b5050565b606060008214156114eb576040518060400160405280600181526020017f3000000000000000000000000000000000000000000000000000000000000000815250905061164b565b600082905060005b6000821461151d57808061150690614126565b915050600a826115169190613fa8565b91506114f3565b60008167ffffffffffffffff81111561155f577f4e487b7100000000000000000000000000000000000000000000000000000000600052604160045260246000fd5b6040519080825280601f01601f1916602001820160405280156115915781602001600182028036833780820191505090505b5090505b60008514611644576001826115aa9190613fd9565b9150600a856115b9919061416f565b60306115c59190613f52565b60f81b818381518110611601577f4e487b7100000000000000000000000000000000000000000000000000000000600052603260045260246000fd5b60200101907effffffffffffffffffffffffffffffffffffffffffffffffffffffffffffff1916908160001a905350600a8561163d9190613fa8565b9450611595565b8093505050505b919050565b600073ffffffffffffffffffffffffffffffffffffffff168473ffffffffffffffffffffffffffffffffffffffff1614156116c0576040517f08c379a00000000000000000000000000000000000000000000000000000000081526004016116b790613d93565b60405180910390fd5b8151835114611704576040517f08c379a00000000000000000000000000000000000000000000000000000000081526004016116fb90613d73565b60405180910390fd5b600061170e611481565b905061171f816000878787876128c4565b60005b845181101561182457838181518110611764577f4e487b7100000000000000000000000000000000000000000000000000000000600052603260045260246000fd5b60200260200101516000808784815181106117a8577f4e487b7100000000000000000000000000000000000000000000000000000000600052603260045260246000fd5b6020026020010151815260200190815260200160002060008873ffffffffffffffffffffffffffffffffffffffff1673ffffffffffffffffffffffffffffffffffffffff168152602001908152602001600020600082825461180a9190613f52565b92505081905550808061181c90614126565b915050611722565b508473ffffffffffffffffffffffffffffffffffffffff16600073ffffffffffffffffffffffffffffffffffffffff168273ffffffffffffffffffffffffffffffffffffffff167f4a39dc06d4c0dbc64b70af90fd698a233a518aa5d07e595d983b8c0526c8f7fb878760405161189c929190613b1f565b60405180910390a46118b381600087878787612922565b5050505050565b81518351146118fe576040517f08c379a00000000000000000000000000000000000000000000000000000000081526004016118f590613d73565b60405180910390fd5b600073ffffffffffffffffffffffffffffffffffffffff168473ffffffffffffffffffffffffffffffffffffffff16141561196e576040517f08c379a000000000000000000000000000000000000000000000000000000000815260040161196590613c93565b60405180910390fd5b6000611978611481565b90506119888187878787876128c4565b60005b8451811015611b855760008582815181106119cf577f4e487b7100000000000000000000000000000000000000000000000000000000600052603260045260246000fd5b602002602001015190506000858381518110611a14577f4e487b7100000000000000000000000000000000000000000000000000000000600052603260045260246000fd5b60200260200101519050600080600084815260200190815260200160002060008b73ffffffffffffffffffffffffffffffffffffffff1673ffffffffffffffffffffffffffffffffffffffff16815260200190815260200160002054905081811015611ab5576040517f08c379a0000000000000000000000000000000000000000000000000000000008152600401611aac90613cf3565b60405180910390fd5b81810360008085815260200190815260200160002060008c73ffffffffffffffffffffffffffffffffffffffff1673ffffffffffffffffffffffffffffffffffffffff168152602001908152602001600020819055508160008085815260200190815260200160002060008b73ffffffffffffffffffffffffffffffffffffffff1673ffffffffffffffffffffffffffffffffffffffff1681526020019081526020016000206000828254611b6a9190613f52565b9250508190555050505080611b7e90614126565b905061198b565b508473ffffffffffffffffffffffffffffffffffffffff168673ffffffffffffffffffffffffffffffffffffffff168273ffffffffffffffffffffffffffffffffffffffff167f4a39dc06d4c0dbc64b70af90fd698a233a518aa5d07e595d983b8c0526c8f7fb8787604051611bfc929190613b1f565b60405180910390a4611c12818787878787612922565b505050505050565b611c22610bf9565b611c61576040517f08c379a0000000000000000000000000000000000000000000000000000000008152600401611c5890613bd3565b60405180910390fd5b6000600360146101000a81548160ff0219169083151502179055507f5db9ee0a495bf2e6ff9c91a7834c1ba4fdd244a5e8aa4e537bd38aeae4b073aa611ca5611481565b604051611cb29190613a20565b60405180910390a1565b600073ffffffffffffffffffffffffffffffffffffffff168373ffffffffffffffffffffffffffffffffffffffff161415611d2c576040517f08c379a0000000000000000000000000000000000000000000000000000000008152600401611d2390613cd3565b60405180910390fd5b8051825114611d70576040517f08c379a0000000000000000000000000000000000000000000000000000000008152600401611d6790613d73565b60405180910390fd5b6000611d7a611481565b9050611d9a818560008686604051806020016040528060008152506128c4565b60005b8351811015611f33576000848281518110611de1577f4e487b7100000000000000000000000000000000000000000000000000000000600052603260045260246000fd5b602002602001015190506000848381518110611e26577f4e487b7100000000000000000000000000000000000000000000000000000000600052603260045260246000fd5b60200260200101519050600080600084815260200190815260200160002060008973ffffffffffffffffffffffffffffffffffffffff1673ffffffffffffffffffffffffffffffffffffffff16815260200190815260200160002054905081811015611ec7576040517f08c379a0000000000000000000000000000000000000000000000000000000008152600401611ebe90613c33565b60405180910390fd5b81810360008085815260200190815260200160002060008a73ffffffffffffffffffffffffffffffffffffffff1673ffffffffffffffffffffffffffffffffffffffff168152602001908152602001600020819055505050508080611f2b90614126565b915050611d9d565b50600073ffffffffffffffffffffffffffffffffffffffff168473ffffffffffffffffffffffffffffffffffffffff168273ffffffffffffffffffffffffffffffffffffffff167f4a39dc06d4c0dbc64b70af90fd698a233a518aa5d07e595d983b8c0526c8f7fb8686604051611fab929190613b1f565b60405180910390a450505050565b6000600360009054906101000a900473ffffffffffffffffffffffffffffffffffffffff16905081600360006101000a81548173ffffffffffffffffffffffffffffffffffffffff021916908373ffffffffffffffffffffffffffffffffffffffff1602179055508173ffffffffffffffffffffffffffffffffffffffff168173ffffffffffffffffffffffffffffffffffffffff167f8be0079c531659141344cd1fd0a4f28419497f9722a3daafe3b4186f6b6457e060405160405180910390a35050565b600073ffffffffffffffffffffffffffffffffffffffff168473ffffffffffffffffffffffffffffffffffffffff1614156120ef576040517f08c379a00000000000000000000000000000000000000000000000000000000081526004016120e690613d93565b60405180910390fd5b60006120f9611481565b905061211a8160008761210b88612b09565b61211488612b09565b876128c4565b8260008086815260200190815260200160002060008773ffffffffffffffffffffffffffffffffffffffff1673ffffffffffffffffffffffffffffffffffffffff16815260200190815260200160002060008282546121799190613f52565b925050819055508473ffffffffffffffffffffffffffffffffffffffff16600073ffffffffffffffffffffffffffffffffffffffff168273ffffffffffffffffffffffffffffffffffffffff167fc3d58168c5ae7397731d063d5bbf3d657854427343f4c083240f7aacaa2d0f6287876040516121f7929190613dce565b60405180910390a461220e81600087878787612bcf565b5050505050565b61221d610bf9565b1561225d576040517f08c379a000000000000000000000000000000000000000000000000000000000815260040161225490613c73565b60405180910390fd5b6001600360146101000a81548160ff0219169083151502179055507f62e78cea01bee320cd4e420270b5ea74000d11b0c9f74754ebdbfc544b05a2586122a1611481565b6040516122ae9190613a20565b60405180910390a1565b8173ffffffffffffffffffffffffffffffffffffffff168373ffffffffffffffffffffffffffffffffffffffff161415612327576040517f08c379a000000000000000000000000000000000000000000000000000000000815260040161231e90613d33565b60405180910390fd5b80600160008573ffffffffffffffffffffffffffffffffffffffff1673ffffffffffffffffffffffffffffffffffffffff16815260200190815260200160002060008473ffffffffffffffffffffffffffffffffffffffff1673ffffffffffffffffffffffffffffffffffffffff16815260200190815260200160002060006101000a81548160ff0219169083151502179055508173ffffffffffffffffffffffffffffffffffffffff168373ffffffffffffffffffffffffffffffffffffffff167f17307eab39ab6107e8899845ad3d59bd9653f200f220920489ca2b5937696c31836040516124189190613b56565b60405180910390a3505050565b600073ffffffffffffffffffffffffffffffffffffffff168473ffffffffffffffffffffffffffffffffffffffff161415612495576040517f08c379a000000000000000000000000000000000000000000000000000000000815260040161248c90613c93565b60405180910390fd5b600061249f611481565b90506124bf8187876124b088612b09565b6124b988612b09565b876128c4565b600080600086815260200190815260200160002060008873ffffffffffffffffffffffffffffffffffffffff1673ffffffffffffffffffffffffffffffffffffffff16815260200190815260200160002054905083811015612556576040517f08c379a000000000000000000000000000000000000000000000000000000000815260040161254d90613cf3565b60405180910390fd5b83810360008087815260200190815260200160002060008973ffffffffffffffffffffffffffffffffffffffff1673ffffffffffffffffffffffffffffffffffffffff168152602001908152602001600020819055508360008087815260200190815260200160002060008873ffffffffffffffffffffffffffffffffffffffff1673ffffffffffffffffffffffffffffffffffffffff168152602001908152602001600020600082825461260b9190613f52565b925050819055508573ffffffffffffffffffffffffffffffffffffffff168773ffffffffffffffffffffffffffffffffffffffff168373ffffffffffffffffffffffffffffffffffffffff167fc3d58168c5ae7397731d063d5bbf3d657854427343f4c083240f7aacaa2d0f628888604051612688929190613dce565b60405180910390a461269e828888888888612bcf565b50505050505050565b600073ffffffffffffffffffffffffffffffffffffffff168373ffffffffffffffffffffffffffffffffffffffff161415612717576040517f08c379a000000000000000000000000000000000000000000000000000000000815260040161270e90613cd3565b60405180910390fd5b6000612721611481565b90506127518185600061273387612b09565b61273c87612b09565b604051806020016040528060008152506128c4565b600080600085815260200190815260200160002060008673ffffffffffffffffffffffffffffffffffffffff1673ffffffffffffffffffffffffffffffffffffffff168152602001908152602001600020549050828110156127e8576040517f08c379a00000000000000000000000000000000000000000000000000000000081526004016127df90613c33565b60405180910390fd5b82810360008086815260200190815260200160002060008773ffffffffffffffffffffffffffffffffffffffff1673ffffffffffffffffffffffffffffffffffffffff16815260200190815260200160002081905550600073ffffffffffffffffffffffffffffffffffffffff168573ffffffffffffffffffffffffffffffffffffffff168373ffffffffffffffffffffffffffffffffffffffff167fc3d58168c5ae7397731d063d5bbf3d657854427343f4c083240f7aacaa2d0f6287876040516128b5929190613dce565b60405180910390a45050505050565b6128cc610bf9565b1561290c576040517f08c379a000000000000000000000000000000000000000000000000000000000815260040161290390613c73565b60405180910390fd5b61291a8686868686866111da565b505050505050565b6129418473ffffffffffffffffffffffffffffffffffffffff166113ec565b15612b01578373ffffffffffffffffffffffffffffffffffffffff1663bc197c8187878686866040518663ffffffff1660e01b8152600401612987959493929190613a3b565b602060405180830381600087803b1580156129a157600080fd5b505af19250505080156129d257506040513d601f19601f820116820180604052508101906129cf9190613572565b60015b612a78576129de61425c565b806308c379a01415612a3b57506129f3614807565b806129fe5750612a3d565b806040517f08c379a0000000000000000000000000000000000000000000000000000000008152600401612a329190613b71565b60405180910390fd5b505b6040517f08c379a0000000000000000000000000000000000000000000000000000000008152600401612a6f90613b93565b60405180910390fd5b63bc197c8160e01b7bffffffffffffffffffffffffffffffffffffffffffffffffffffffff1916817bffffffffffffffffffffffffffffffffffffffffffffffffffffffff191614612aff576040517f08c379a0000000000000000000000000000000000000000000000000000000008152600401612af690613bb3565b60405180910390fd5b505b505050505050565b60606000600167ffffffffffffffff811115612b4e577f4e487b7100000000000000000000000000000000000000000000000000000000600052604160045260246000fd5b604051908082528060200260200182016040528015612b7c5781602001602082028036833780820191505090505b5090508281600081518110612bba577f4e487b7100000000000000000000000000000000000000000000000000000000600052603260045260246000fd5b60200260200101818152505080915050919050565b612bee8473ffffffffffffffffffffffffffffffffffffffff166113ec565b15612dae578373ffffffffffffffffffffffffffffffffffffffff1663f23a6e6187878686866040518663ffffffff1660e01b8152600401612c34959493929190613aa3565b602060405180830381600087803b158015612c4e57600080fd5b505af1925050508015612c7f57506040513d601f19601f82011682018060405250810190612c7c9190613572565b60015b612d2557612c8b61425c565b806308c379a01415612ce85750612ca0614807565b80612cab5750612cea565b806040517f08c379a0000000000000000000000000000000000000000000000000000000008152600401612cdf9190613b71565b60405180910390fd5b505b6040517f08c379a0000000000000000000000000000000000000000000000000000000008152600401612d1c90613b93565b60405180910390fd5b63f23a6e6160e01b7bffffffffffffffffffffffffffffffffffffffffffffffffffffffff1916817bffffffffffffffffffffffffffffffffffffffffffffffffffffffff191614612dac576040517f08c379a0000000000000000000000000000000000000000000000000000000008152600401612da390613bb3565b60405180910390fd5b505b505050505050565b828054612dc2906140c3565b90600052602060002090601f016020900481019282612de45760008555612e2b565b82601f10612dfd57805160ff1916838001178555612e2b565b82800160010185558215612e2b579182015b82811115612e2a578251825591602001919060010190612e0f565b5b509050612e389190612e3c565b5090565b5b80821115612e55576000816000905550600101612e3d565b5090565b6000612e6c612e6784613e1c565b613df7565b90508083825260208201905082856020860282011115612e8b57600080fd5b60005b85811015612ebb5781612ea18882612fad565b845260208401935060208301925050600181019050612e8e565b5050509392505050565b6000612ed8612ed384613e48565b613df7565b90508083825260208201905082856020860282011115612ef757600080fd5b60005b85811015612f275781612f0d88826130a9565b845260208401935060208301925050600181019050612efa565b5050509392505050565b6000612f44612f3f84613e74565b613df7565b905082815260208101848484011115612f5c57600080fd5b612f67848285614081565b509392505050565b6000612f82612f7d84613ea5565b613df7565b905082815260208101848484011115612f9a57600080fd5b612fa5848285614081565b509392505050565b600081359050612fbc8161489d565b92915050565b600082601f830112612fd357600080fd5b8135612fe3848260208601612e59565b91505092915050565b600082601f830112612ffd57600080fd5b813561300d848260208601612ec5565b91505092915050565b600081359050613025816148b4565b92915050565b60008135905061303a816148cb565b92915050565b60008151905061304f816148cb565b92915050565b600082601f83011261306657600080fd5b8135613076848260208601612f31565b91505092915050565b600082601f83011261309057600080fd5b81356130a0848260208601612f6f565b91505092915050565b6000813590506130b8816148e2565b92915050565b6000602082840312156130d057600080fd5b60006130de84828501612fad565b91505092915050565b600080604083850312156130fa57600080fd5b600061310885828601612fad565b925050602061311985828601612fad565b9150509250929050565b600080600080600060a0868803121561313b57600080fd5b600061314988828901612fad565b955050602061315a88828901612fad565b945050604086013567ffffffffffffffff81111561317757600080fd5b61318388828901612fec565b935050606086013567ffffffffffffffff8111156131a057600080fd5b6131ac88828901612fec565b925050608086013567ffffffffffffffff8111156131c957600080fd5b6131d588828901613055565b9150509295509295909350565b600080600080600060a086880312156131fa57600080fd5b600061320888828901612fad565b955050602061321988828901612fad565b945050604061322a888289016130a9565b935050606061323b888289016130a9565b925050608086013567ffffffffffffffff81111561325857600080fd5b61326488828901613055565b9150509295509295909350565b60008060006060848603121561328657600080fd5b600061329486828701612fad565b935050602084013567ffffffffffffffff8111156132b157600080fd5b6132bd86828701612fec565b925050604084013567ffffffffffffffff8111156132da57600080fd5b6132e686828701612fec565b9150509250925092565b6000806000806080858703121561330657600080fd5b600061331487828801612fad565b945050602085013567ffffffffffffffff81111561333157600080fd5b61333d87828801612fec565b935050604085013567ffffffffffffffff81111561335a57600080fd5b61336687828801612fec565b925050606085013567ffffffffffffffff81111561338357600080fd5b61338f87828801613055565b91505092959194509250565b600080604083850312156133ae57600080fd5b60006133bc85828601612fad565b92505060206133cd85828601613016565b9150509250929050565b600080604083850312156133ea57600080fd5b60006133f885828601612fad565b9250506020613409858286016130a9565b9150509250929050565b60008060006060848603121561342857600080fd5b600061343686828701612fad565b9350506020613447868287016130a9565b9250506040613458868287016130a9565b9150509250925092565b6000806000806080858703121561347857600080fd5b600061348687828801612fad565b9450506020613497878288016130a9565b93505060406134a8878288016130a9565b925050606085013567ffffffffffffffff8111156134c557600080fd5b6134d187828801613055565b91505092959194509250565b600080604083850312156134f057600080fd5b600083013567ffffffffffffffff81111561350a57600080fd5b61351685828601612fc2565b925050602083013567ffffffffffffffff81111561353357600080fd5b61353f85828601612fec565b9150509250929050565b60006020828403121561355b57600080fd5b60006135698482850161302b565b91505092915050565b60006020828403121561358457600080fd5b600061359284828501613040565b91505092915050565b6000602082840312156135ad57600080fd5b600082013567ffffffffffffffff8111156135c757600080fd5b6135d38482850161307f565b91505092915050565b6000602082840312156135ee57600080fd5b60006135fc848285016130a9565b91505092915050565b600061361183836139d5565b60208301905092915050565b6136268161400d565b82525050565b600061363782613ee6565b6136418185613f14565b935061364c83613ed6565b8060005b8381101561367d5781516136648882613605565b975061366f83613f07565b925050600181019050613650565b5085935050505092915050565b6136938161401f565b82525050565b60006136a482613ef1565b6136ae8185613f25565b93506136be818560208601614090565b6136c78161427e565b840191505092915050565b60006136dd82613efc565b6136e78185613f36565b93506136f7818560208601614090565b6137008161427e565b840191505092915050565b600061371682613efc565b6137208185613f47565b9350613730818560208601614090565b80840191505092915050565b6000613749603483613f36565b91506137548261429c565b604082019050919050565b600061376c602883613f36565b9150613777826142eb565b604082019050919050565b600061378f601483613f36565b915061379a8261433a565b602082019050919050565b60006137b2602b83613f36565b91506137bd82614363565b604082019050919050565b60006137d5602683613f36565b91506137e0826143b2565b604082019050919050565b60006137f8602483613f36565b915061380382614401565b604082019050919050565b600061381b605983613f47565b915061382682614450565b605982019050919050565b600061383e602983613f36565b9150613849826144c5565b604082019050919050565b6000613861601083613f36565b915061386c82614514565b602082019050919050565b6000613884602583613f36565b915061388f8261453d565b604082019050919050565b60006138a7603283613f36565b91506138b28261458c565b604082019050919050565b60006138ca602383613f36565b91506138d5826145db565b604082019050919050565b60006138ed602a83613f36565b91506138f88261462a565b604082019050919050565b6000613910600583613f47565b915061391b82614679565b600582019050919050565b6000613933602083613f36565b915061393e826146a2565b602082019050919050565b6000613956602983613f36565b9150613961826146cb565b604082019050919050565b6000613979602983613f36565b91506139848261471a565b604082019050919050565b600061399c602883613f36565b91506139a782614769565b604082019050919050565b60006139bf602183613f36565b91506139ca826147b8565b604082019050919050565b6139de81614077565b82525050565b6139ed81614077565b82525050565b60006139fe8261380e565b9150613a0a828461370b565b9150613a1582613903565b915081905092915050565b6000602082019050613a35600083018461361d565b92915050565b600060a082019050613a50600083018861361d565b613a5d602083018761361d565b8181036040830152613a6f818661362c565b90508181036060830152613a83818561362c565b90508181036080830152613a978184613699565b90509695505050505050565b600060a082019050613ab8600083018861361d565b613ac5602083018761361d565b613ad260408301866139e4565b613adf60608301856139e4565b8181036080830152613af18184613699565b90509695505050505050565b60006020820190508181036000830152613b17818461362c565b905092915050565b60006040820190508181036000830152613b39818561362c565b90508181036020830152613b4d818461362c565b90509392505050565b6000602082019050613b6b600083018461368a565b92915050565b60006020820190508181036000830152613b8b81846136d2565b905092915050565b60006020820190508181036000830152613bac8161373c565b9050919050565b60006020820190508181036000830152613bcc8161375f565b9050919050565b60006020820190508181036000830152613bec81613782565b9050919050565b60006020820190508181036000830152613c0c816137a5565b9050919050565b60006020820190508181036000830152613c2c816137c8565b9050919050565b60006020820190508181036000830152613c4c816137eb565b9050919050565b60006020820190508181036000830152613c6c81613831565b9050919050565b60006020820190508181036000830152613c8c81613854565b9050919050565b60006020820190508181036000830152613cac81613877565b9050919050565b60006020820190508181036000830152613ccc8161389a565b9050919050565b60006020820190508181036000830152613cec816138bd565b9050919050565b60006020820190508181036000830152613d0c816138e0565b9050919050565b60006020820190508181036000830152613d2c81613926565b9050919050565b60006020820190508181036000830152613d4c81613949565b9050919050565b60006020820190508181036000830152613d6c8161396c565b9050919050565b60006020820190508181036000830152613d8c8161398f565b9050919050565b60006020820190508181036000830152613dac816139b2565b9050919050565b6000602082019050613dc860008301846139e4565b92915050565b6000604082019050613de360008301856139e4565b613df060208301846139e4565b9392505050565b6000613e01613e12565b9050613e0d82826140f5565b919050565b6000604051905090565b600067ffffffffffffffff821115613e3757613e3661422d565b5b602082029050602081019050919050565b600067ffffffffffffffff821115613e6357613e6261422d565b5b602082029050602081019050919050565b600067ffffffffffffffff821115613e8f57613e8e61422d565b5b613e988261427e565b9050602081019050919050565b600067ffffffffffffffff821115613ec057613ebf61422d565b5b613ec98261427e565b9050602081019050919050565b6000819050602082019050919050565b600081519050919050565b600081519050919050565b600081519050919050565b6000602082019050919050565b600082825260208201905092915050565b600082825260208201905092915050565b600082825260208201905092915050565b600081905092915050565b6000613f5d82614077565b9150613f6883614077565b9250827fffffffffffffffffffffffffffffffffffffffffffffffffffffffffffffffff03821115613f9d57613f9c6141a0565b5b828201905092915050565b6000613fb382614077565b9150613fbe83614077565b925082613fce57613fcd6141cf565b5b828204905092915050565b6000613fe482614077565b9150613fef83614077565b925082821015614002576140016141a0565b5b828203905092915050565b600061401882614057565b9050919050565b60008115159050919050565b60007fffffffff0000000000000000000000000000000000000000000000000000000082169050919050565b600073ffffffffffffffffffffffffffffffffffffffff82169050919050565b6000819050919050565b82818337600083830152505050565b60005b838110156140ae578082015181840152602081019050614093565b838111156140bd576000848401525b50505050565b600060028204905060018216806140db57607f821691505b602082108114156140ef576140ee6141fe565b5b50919050565b6140fe8261427e565b810181811067ffffffffffffffff8211171561411d5761411c61422d565b5b80604052505050565b600061413182614077565b91507fffffffffffffffffffffffffffffffffffffffffffffffffffffffffffffffff821415614164576141636141a0565b5b600182019050919050565b600061417a82614077565b915061418583614077565b925082614195576141946141cf565b5b828206905092915050565b7f4e487b7100000000000000000000000000000000000000000000000000000000600052601160045260246000fd5b7f4e487b7100000000000000000000000000000000000000000000000000000000600052601260045260246000fd5b7f4e487b7100000000000000000000000000000000000000000000000000000000600052602260045260246000fd5b7f4e487b7100000000000000000000000000000000000000000000000000000000600052604160045260246000fd5b600060033d111561427b5760046000803e61427860005161428f565b90505b90565b6000601f19601f8301169050919050565b60008160e01c9050919050565b7f455243313135353a207472616e7366657220746f206e6f6e204552433131353560008201527f526563656976657220696d706c656d656e746572000000000000000000000000602082015250565b7f455243313135353a204552433131353552656365697665722072656a6563746560008201527f6420746f6b656e73000000000000000000000000000000000000000000000000602082015250565b7f5061757361626c653a206e6f7420706175736564000000000000000000000000600082015250565b7f455243313135353a2062616c616e636520717565727920666f7220746865207a60008201527f65726f2061646472657373000000000000000000000000000000000000000000602082015250565b7f4f776e61626c653a206e6577206f776e657220697320746865207a65726f206160008201527f6464726573730000000000000000000000000000000000000000000000000000602082015250565b7f455243313135353a206275726e20616d6f756e7420657863656564732062616c60008201527f616e636500000000000000000000000000000000000000000000000000000000602082015250565b7f68747470733a2f2f626166796265696571706b366577796969676e736a6f716a60008201527f356835776e6b736c6464736a327232756b7473356c326b76336a696d6b6f6c3260208201527f786c752e697066732e6e667473746f726167652e6c696e6b2f00000000000000604082015250565b7f455243313135353a2063616c6c6572206973206e6f74206f776e6572206e6f7260008201527f20617070726f7665640000000000000000000000000000000000000000000000602082015250565b7f5061757361626c653a2070617573656400000000000000000000000000000000600082015250565b7f455243313135353a207472616e7366657220746f20746865207a65726f20616460008201527f6472657373000000000000000000000000000000000000000000000000000000602082015250565b7f455243313135353a207472616e736665722063616c6c6572206973206e6f742060008201527f6f776e6572206e6f7220617070726f7665640000000000000000000000000000602082015250565b7f455243313135353a206275726e2066726f6d20746865207a65726f206164647260008201527f6573730000000000000000000000000000000000000000000000000000000000602082015250565b7f455243313135353a20696e73756666696369656e742062616c616e636520666f60008201527f72207472616e7366657200000000000000000000000000000000000000000000602082015250565b7f2e6a736f6e000000000000000000000000000000000000000000000000000000600082015250565b7f4f776e61626c653a2063616c6c6572206973206e6f7420746865206f776e6572600082015250565b7f455243313135353a2073657474696e6720617070726f76616c2073746174757360008201527f20666f722073656c660000000000000000000000000000000000000000000000602082015250565b7f455243313135353a206163636f756e747320616e6420696473206c656e67746860008201527f206d69736d617463680000000000000000000000000000000000000000000000602082015250565b7f455243313135353a2069647320616e6420616d6f756e7473206c656e6774682060008201527f6d69736d61746368000000000000000000000000000000000000000000000000602082015250565b7f455243313135353a206d696e7420746f20746865207a65726f2061646472657360008201527f7300000000000000000000000000000000000000000000000000000000000000602082015250565b600060443d10156148175761489a565b61481f613e12565b60043d036004823e80513d602482011167ffffffffffffffff8211171561484757505061489a565b808201805167ffffffffffffffff811115614865575050505061489a565b80602083010160043d03850181111561488257505050505061489a565b614891826020018501866140f5565b82955050505050505b90565b6148a68161400d565b81146148b157600080fd5b50565b6148bd8161401f565b81146148c857600080fd5b50565b6148d48161402b565b81146148df57600080fd5b50565b6148eb81614077565b81146148f657600080fd5b5056fea2646970667358221220e34eb74099ec23cd5c7cd3fd8b0004d0312f835dde0ba01d798fc5938106689864736f6c6343000804003368747470733a2f2f626166796265696571706b366577796969676e736a6f716a356835776e6b736c6464736a327232756b7473356c326b76336a696d6b6f6c32786c752e697066732e6e667473746f726167652e6c696e6b2f7b69647d2e6a736f6e",
  "immutableReferences": {},
  "source": "// SPDX-License-Identifier: MIT\npragma solidity ^0.8.4;\n\nimport \"@openzeppelin/contracts/token/ERC1155/ERC1155.sol\";\nimport \"@openzeppelin/contracts/access/Ownable.sol\";\nimport \"@openzeppelin/contracts/security/Pausable.sol\";\nimport \"@openzeppelin/contracts/token/ERC1155/extensions/ERC1155Burnable.sol\";\nimport \"@openzeppelin/contracts/token/ERC1155/extensions/ERC1155Supply.sol\";\nimport \"@openzeppelin/contracts/utils/Strings.sol\";\n\ncontract SurgeToken is ERC1155, Ownable, Pausable, ERC1155Burnable, ERC1155Supply {\n    string public name;\n    uint256 internal tokensCount;\n\n    uint256 public constant Rock = 1;\n    uint256 public constant Paper = 2;\n    uint256 public constant Scissors = 3;\n\n    uint256[] public tokenIds = [Rock, Paper, Scissors];\n    uint256[] public tokenValues = [1, 1, 1];\n\n    constructor(string memory _name) ERC1155(\"https://bafybeieqpk6ewyiignsjoqj5h5wnkslddsj2r2ukts5l2kv3jimkol2xlu.ipfs.nftstorage.link/{id}.json\") {\n        name = _name;\n        tokensCount = 0;\n\n        mintBatch(msg.sender,\n            tokenIds,\n            tokenValues,\n            \"\"\n        );\n    }\n\n    function getTokensCount() public view returns (uint256) {\n        return tokensCount;\n    }\n\n    function uri(uint256 _tokenid) override public pure returns (string memory) {\n        return string(\n            abi.encodePacked(\n                \"https://bafybeieqpk6ewyiignsjoqj5h5wnkslddsj2r2ukts5l2kv3jimkol2xlu.ipfs.nftstorage.link/\",\n                Strings.toString(_tokenid),\".json\"\n            )\n        );\n    }\n\n    function setURI(string memory newuri) public onlyOwner {\n        _setURI(newuri);\n    }\n\n    function pause() public onlyOwner {\n        _pause();\n    }\n\n    function unpause() public onlyOwner {\n        _unpause();\n    }\n\n    function mint(address account, uint256 id, uint256 amount, bytes memory data)\n        public\n        onlyOwner\n    {\n        _mint(account, id, amount, data);\n        tokensCount++;\n    }\n\n    function mintBatch(address to, uint256[] memory ids, uint256[] memory amounts, bytes memory data)\n        public\n        onlyOwner\n    {\n        _mintBatch(to, ids, amounts, data);\n        tokensCount += ids.length;\n    }\n\n    function _beforeTokenTransfer(address operator, address from, address to, uint256[] memory ids, uint256[] memory amounts, bytes memory data)\n        internal\n        whenNotPaused\n        override(ERC1155, ERC1155Supply)\n    {\n        super._beforeTokenTransfer(operator, from, to, ids, amounts, data);\n    }\n}\n",
  "sourcePath": "/Users/surge/Projects/web3/avax-truffle/contracts/SurgeToken.sol",
  "compiler": {
    "name": "solc",
    "version": "0.8.4+commit.c7e474f2.Emscripten.clang"
  },
  "schemaVersion": "3.4.6",
  "updatedAt": "2022-04-23T12:53:30.783Z",
  "networkType": "ethereum",
  "devdoc": {
    "kind": "dev",
    "methods": {
      "balanceOf(address,uint256)": {
        "details": "See {IERC1155-balanceOf}. Requirements: - `account` cannot be the zero address."
      },
      "balanceOfBatch(address[],uint256[])": {
        "details": "See {IERC1155-balanceOfBatch}. Requirements: - `accounts` and `ids` must have the same length."
      },
      "exists(uint256)": {
        "details": "Indicates whether any token exist with a given id, or not."
      },
      "isApprovedForAll(address,address)": {
        "details": "See {IERC1155-isApprovedForAll}."
      },
      "owner()": {
        "details": "Returns the address of the current owner."
      },
      "paused()": {
        "details": "Returns true if the contract is paused, and false otherwise."
      },
      "renounceOwnership()": {
        "details": "Leaves the contract without owner. It will not be possible to call `onlyOwner` functions anymore. Can only be called by the current owner. NOTE: Renouncing ownership will leave the contract without an owner, thereby removing any functionality that is only available to the owner."
      },
      "safeBatchTransferFrom(address,address,uint256[],uint256[],bytes)": {
        "details": "See {IERC1155-safeBatchTransferFrom}."
      },
      "safeTransferFrom(address,address,uint256,uint256,bytes)": {
        "details": "See {IERC1155-safeTransferFrom}."
      },
      "setApprovalForAll(address,bool)": {
        "details": "See {IERC1155-setApprovalForAll}."
      },
      "supportsInterface(bytes4)": {
        "details": "See {IERC165-supportsInterface}."
      },
      "totalSupply(uint256)": {
        "details": "Total amount of tokens in with a given id."
      },
      "transferOwnership(address)": {
        "details": "Transfers ownership of the contract to a new account (`newOwner`). Can only be called by the current owner."
      }
    },
    "version": 1
  },
  "userdoc": {
    "kind": "user",
    "methods": {},
    "version": 1
  }
}